{
  "_format": "hh-sol-artifact-1",
  "contractName": "BorrowYourCar",
  "sourceName": "contracts/BorrowYourCar.sol",
  "abi": [
    {
      "inputs": [
        {
          "internalType": "string",
          "name": "name_",
          "type": "string"
        },
        {
          "internalType": "string",
          "name": "symbol_",
          "type": "string"
        }
      ],
      "stateMutability": "nonpayable",
      "type": "constructor"
    },
    {
      "inputs": [
        {
          "internalType": "address",
          "name": "sender",
          "type": "address"
        },
        {
          "internalType": "uint256",
          "name": "tokenId",
          "type": "uint256"
        },
        {
          "internalType": "address",
          "name": "owner",
          "type": "address"
        }
      ],
      "name": "ERC721IncorrectOwner",
      "type": "error"
    },
    {
      "inputs": [
        {
          "internalType": "address",
          "name": "operator",
          "type": "address"
        },
        {
          "internalType": "uint256",
          "name": "tokenId",
          "type": "uint256"
        }
      ],
      "name": "ERC721InsufficientApproval",
      "type": "error"
    },
    {
      "inputs": [
        {
          "internalType": "address",
          "name": "approver",
          "type": "address"
        }
      ],
      "name": "ERC721InvalidApprover",
      "type": "error"
    },
    {
      "inputs": [
        {
          "internalType": "address",
          "name": "operator",
          "type": "address"
        }
      ],
      "name": "ERC721InvalidOperator",
      "type": "error"
    },
    {
      "inputs": [
        {
          "internalType": "address",
          "name": "owner",
          "type": "address"
        }
      ],
      "name": "ERC721InvalidOwner",
      "type": "error"
    },
    {
      "inputs": [
        {
          "internalType": "address",
          "name": "receiver",
          "type": "address"
        }
      ],
      "name": "ERC721InvalidReceiver",
      "type": "error"
    },
    {
      "inputs": [
        {
          "internalType": "address",
          "name": "sender",
          "type": "address"
        }
      ],
      "name": "ERC721InvalidSender",
      "type": "error"
    },
    {
      "inputs": [
        {
          "internalType": "uint256",
          "name": "tokenId",
          "type": "uint256"
        }
      ],
      "name": "ERC721NonexistentToken",
      "type": "error"
    },
    {
      "anonymous": false,
      "inputs": [
        {
          "indexed": true,
          "internalType": "address",
          "name": "owner",
          "type": "address"
        },
        {
          "indexed": true,
          "internalType": "address",
          "name": "approved",
          "type": "address"
        },
        {
          "indexed": true,
          "internalType": "uint256",
          "name": "tokenId",
          "type": "uint256"
        }
      ],
      "name": "Approval",
      "type": "event"
    },
    {
      "anonymous": false,
      "inputs": [
        {
          "indexed": true,
          "internalType": "address",
          "name": "owner",
          "type": "address"
        },
        {
          "indexed": true,
          "internalType": "address",
          "name": "operator",
          "type": "address"
        },
        {
          "indexed": false,
          "internalType": "bool",
          "name": "approved",
          "type": "bool"
        }
      ],
      "name": "ApprovalForAll",
      "type": "event"
    },
    {
      "anonymous": false,
      "inputs": [
        {
          "indexed": false,
          "internalType": "uint256",
          "name": "carTokenId",
          "type": "uint256"
        },
        {
          "indexed": false,
          "internalType": "address",
          "name": "borrower",
          "type": "address"
        },
        {
          "indexed": false,
          "internalType": "uint256",
          "name": "startTime",
          "type": "uint256"
        },
        {
          "indexed": false,
          "internalType": "uint256",
          "name": "duration",
          "type": "uint256"
        }
      ],
      "name": "CarBorrowed",
      "type": "event"
    },
    {
      "anonymous": false,
      "inputs": [
        {
          "indexed": true,
          "internalType": "address",
          "name": "from",
          "type": "address"
        },
        {
          "indexed": true,
          "internalType": "address",
          "name": "to",
          "type": "address"
        },
        {
          "indexed": true,
          "internalType": "uint256",
          "name": "tokenId",
          "type": "uint256"
        }
      ],
      "name": "Transfer",
      "type": "event"
    },
    {
      "inputs": [
        {
          "internalType": "address",
          "name": "Car_to_Owner",
          "type": "address"
        }
      ],
      "name": "CarNFT",
      "outputs": [],
      "stateMutability": "nonpayable",
      "type": "function"
    },
    {
      "inputs": [],
      "name": "MaxCarCount",
      "outputs": [
        {
          "internalType": "uint256",
          "name": "",
          "type": "uint256"
        }
      ],
      "stateMutability": "view",
      "type": "function"
    },
    {
      "inputs": [
        {
          "internalType": "address",
          "name": "to",
          "type": "address"
        },
        {
          "internalType": "uint256",
          "name": "tokenId",
          "type": "uint256"
        }
      ],
      "name": "approve",
      "outputs": [],
      "stateMutability": "nonpayable",
      "type": "function"
    },
    {
      "inputs": [
        {
          "internalType": "uint256",
          "name": "CarTokenId",
          "type": "uint256"
        }
      ],
      "name": "back",
      "outputs": [],
      "stateMutability": "nonpayable",
      "type": "function"
    },
    {
      "inputs": [
        {
          "internalType": "address",
          "name": "owner",
          "type": "address"
        }
      ],
      "name": "balanceOf",
      "outputs": [
        {
          "internalType": "uint256",
          "name": "",
          "type": "uint256"
        }
      ],
      "stateMutability": "view",
      "type": "function"
    },
    {
      "inputs": [
        {
          "internalType": "uint256",
          "name": "CarTokenId",
          "type": "uint256"
        },
        {
          "internalType": "uint256",
          "name": "duration",
          "type": "uint256"
        }
      ],
      "name": "borrow",
      "outputs": [],
      "stateMutability": "nonpayable",
      "type": "function"
    },
    {
      "inputs": [],
      "name": "carCount",
      "outputs": [
        {
          "internalType": "uint256",
          "name": "",
          "type": "uint256"
        }
      ],
      "stateMutability": "view",
      "type": "function"
    },
    {
      "inputs": [
        {
          "internalType": "uint256",
          "name": "",
          "type": "uint256"
        }
      ],
      "name": "cars",
      "outputs": [
        {
          "internalType": "uint256",
          "name": "tokenId",
          "type": "uint256"
        },
        {
          "internalType": "address",
          "name": "owner",
          "type": "address"
        },
        {
          "internalType": "address",
          "name": "borrower",
          "type": "address"
        },
        {
          "internalType": "uint256",
          "name": "borrowUntil",
          "type": "uint256"
        }
      ],
      "stateMutability": "view",
      "type": "function"
    },
    {
      "inputs": [
        {
          "internalType": "uint256",
          "name": "tokenId",
          "type": "uint256"
        }
      ],
      "name": "getApproved",
      "outputs": [
        {
          "internalType": "address",
          "name": "",
          "type": "address"
        }
      ],
      "stateMutability": "view",
      "type": "function"
    },
    {
      "inputs": [],
      "name": "getBorrowedCars",
      "outputs": [
        {
          "components": [
            {
              "internalType": "uint256",
              "name": "tokenId",
              "type": "uint256"
            },
            {
              "internalType": "address",
              "name": "owner",
              "type": "address"
            },
            {
              "internalType": "address",
              "name": "borrower",
              "type": "address"
            },
            {
              "internalType": "uint256",
              "name": "borrowUntil",
              "type": "uint256"
            }
          ],
          "internalType": "struct BorrowYourCar.Car[]",
          "name": "",
          "type": "tuple[]"
        }
      ],
      "stateMutability": "view",
      "type": "function"
    },
    {
      "inputs": [
        {
          "internalType": "uint256",
          "name": "CarTokenId",
          "type": "uint256"
        }
      ],
      "name": "getCarBorrower",
      "outputs": [
        {
          "internalType": "address",
          "name": "",
          "type": "address"
        }
      ],
      "stateMutability": "view",
      "type": "function"
    },
    {
      "inputs": [
        {
          "internalType": "uint256",
          "name": "CarTokenId",
          "type": "uint256"
        }
      ],
      "name": "getCarOwner",
      "outputs": [
        {
          "internalType": "address",
          "name": "",
          "type": "address"
        }
      ],
      "stateMutability": "view",
      "type": "function"
    },
    {
      "inputs": [],
      "name": "getFreeCars",
      "outputs": [
        {
          "components": [
            {
              "internalType": "uint256",
              "name": "tokenId",
              "type": "uint256"
            },
            {
              "internalType": "address",
              "name": "owner",
              "type": "address"
            },
            {
              "internalType": "address",
              "name": "borrower",
              "type": "address"
            },
            {
              "internalType": "uint256",
              "name": "borrowUntil",
              "type": "uint256"
            }
          ],
          "internalType": "struct BorrowYourCar.Car[]",
          "name": "",
          "type": "tuple[]"
        }
      ],
      "stateMutability": "view",
      "type": "function"
    },
    {
      "inputs": [],
      "name": "getOwnedCars",
      "outputs": [
        {
          "components": [
            {
              "internalType": "uint256",
              "name": "tokenId",
              "type": "uint256"
            },
            {
              "internalType": "address",
              "name": "owner",
              "type": "address"
            },
            {
              "internalType": "address",
              "name": "borrower",
              "type": "address"
            },
            {
              "internalType": "uint256",
              "name": "borrowUntil",
              "type": "uint256"
            }
          ],
          "internalType": "struct BorrowYourCar.Car[]",
          "name": "",
          "type": "tuple[]"
        }
      ],
      "stateMutability": "view",
      "type": "function"
    },
    {
      "inputs": [],
      "name": "helloworld",
      "outputs": [
        {
          "internalType": "string",
          "name": "",
          "type": "string"
        }
      ],
      "stateMutability": "pure",
      "type": "function"
    },
    {
      "inputs": [
        {
          "internalType": "address",
          "name": "owner",
          "type": "address"
        },
        {
          "internalType": "address",
          "name": "operator",
          "type": "address"
        }
      ],
      "name": "isApprovedForAll",
      "outputs": [
        {
          "internalType": "bool",
          "name": "",
          "type": "bool"
        }
      ],
      "stateMutability": "view",
      "type": "function"
    },
    {
      "inputs": [
        {
          "internalType": "uint256",
          "name": "CarTokenId",
          "type": "uint256"
        }
      ],
      "name": "isFree",
      "outputs": [
        {
          "internalType": "bool",
          "name": "",
          "type": "bool"
        }
      ],
      "stateMutability": "nonpayable",
      "type": "function"
    },
    {
      "inputs": [],
      "name": "maomaoToken",
      "outputs": [
        {
          "internalType": "contract MaoMaoToken",
          "name": "",
          "type": "address"
        }
      ],
      "stateMutability": "view",
      "type": "function"
    },
    {
      "inputs": [],
      "name": "name",
      "outputs": [
        {
          "internalType": "string",
          "name": "",
          "type": "string"
        }
      ],
      "stateMutability": "view",
      "type": "function"
    },
    {
      "inputs": [
        {
          "internalType": "uint256",
          "name": "tokenId",
          "type": "uint256"
        }
      ],
      "name": "ownerOf",
      "outputs": [
        {
          "internalType": "address",
          "name": "",
          "type": "address"
        }
      ],
      "stateMutability": "view",
      "type": "function"
    },
    {
      "inputs": [
        {
          "internalType": "address",
          "name": "",
          "type": "address"
        },
        {
          "internalType": "uint256",
          "name": "",
          "type": "uint256"
        }
      ],
      "name": "owners",
      "outputs": [
        {
          "internalType": "uint256",
          "name": "",
          "type": "uint256"
        }
      ],
      "stateMutability": "view",
      "type": "function"
    },
    {
      "inputs": [
        {
          "internalType": "address",
          "name": "from",
          "type": "address"
        },
        {
          "internalType": "address",
          "name": "to",
          "type": "address"
        },
        {
          "internalType": "uint256",
          "name": "tokenId",
          "type": "uint256"
        }
      ],
      "name": "safeTransferFrom",
      "outputs": [],
      "stateMutability": "nonpayable",
      "type": "function"
    },
    {
      "inputs": [
        {
          "internalType": "address",
          "name": "from",
          "type": "address"
        },
        {
          "internalType": "address",
          "name": "to",
          "type": "address"
        },
        {
          "internalType": "uint256",
          "name": "tokenId",
          "type": "uint256"
        },
        {
          "internalType": "bytes",
          "name": "data",
          "type": "bytes"
        }
      ],
      "name": "safeTransferFrom",
      "outputs": [],
      "stateMutability": "nonpayable",
      "type": "function"
    },
    {
      "inputs": [
        {
          "internalType": "address",
          "name": "operator",
          "type": "address"
        },
        {
          "internalType": "bool",
          "name": "approved",
          "type": "bool"
        }
      ],
      "name": "setApprovalForAll",
      "outputs": [],
      "stateMutability": "nonpayable",
      "type": "function"
    },
    {
      "inputs": [
        {
          "internalType": "bytes4",
          "name": "interfaceId",
          "type": "bytes4"
        }
      ],
      "name": "supportsInterface",
      "outputs": [
        {
          "internalType": "bool",
          "name": "",
          "type": "bool"
        }
      ],
      "stateMutability": "view",
      "type": "function"
    },
    {
      "inputs": [],
      "name": "symbol",
      "outputs": [
        {
          "internalType": "string",
          "name": "",
          "type": "string"
        }
      ],
      "stateMutability": "view",
      "type": "function"
    },
    {
      "inputs": [
        {
          "internalType": "uint256",
          "name": "tokenId",
          "type": "uint256"
        }
      ],
      "name": "tokenURI",
      "outputs": [
        {
          "internalType": "string",
          "name": "",
          "type": "string"
        }
      ],
      "stateMutability": "view",
      "type": "function"
    },
    {
      "inputs": [
        {
          "internalType": "address",
          "name": "from",
          "type": "address"
        },
        {
          "internalType": "address",
          "name": "to",
          "type": "address"
        },
        {
          "internalType": "uint256",
          "name": "tokenId",
          "type": "uint256"
        }
      ],
      "name": "transferFrom",
      "outputs": [],
      "stateMutability": "nonpayable",
      "type": "function"
    }
  ],
  "bytecode": "0x608060405260006008556101f46009553480156200001c57600080fd5b50604051620057d5380380620057d583398181016040528101906200004291906200028a565b818181600090816200005591906200055a565b5080600190816200006791906200055a565b5050506040516200007890620000e9565b6200008390620006f2565b604051809103906000f080158015620000a0573d6000803e3d6000fd5b50600a60006101000a81548173ffffffffffffffffffffffffffffffffffffffff021916908373ffffffffffffffffffffffffffffffffffffffff160217905550505062000729565b611639806200419c83390190565b6000604051905090565b600080fd5b600080fd5b600080fd5b600080fd5b6000601f19601f8301169050919050565b7f4e487b7100000000000000000000000000000000000000000000000000000000600052604160045260246000fd5b620001608262000115565b810181811067ffffffffffffffff8211171562000182576200018162000126565b5b80604052505050565b600062000197620000f7565b9050620001a5828262000155565b919050565b600067ffffffffffffffff821115620001c857620001c762000126565b5b620001d38262000115565b9050602081019050919050565b60005b8381101562000200578082015181840152602081019050620001e3565b60008484015250505050565b6000620002236200021d84620001aa565b6200018b565b90508281526020810184848401111562000242576200024162000110565b5b6200024f848285620001e0565b509392505050565b600082601f8301126200026f576200026e6200010b565b5b8151620002818482602086016200020c565b91505092915050565b60008060408385031215620002a457620002a362000101565b5b600083015167ffffffffffffffff811115620002c557620002c462000106565b5b620002d38582860162000257565b925050602083015167ffffffffffffffff811115620002f757620002f662000106565b5b620003058582860162000257565b9150509250929050565b600081519050919050565b7f4e487b7100000000000000000000000000000000000000000000000000000000600052602260045260246000fd5b600060028204905060018216806200036257607f821691505b6020821081036200037857620003776200031a565b5b50919050565b60008190508160005260206000209050919050565b60006020601f8301049050919050565b600082821b905092915050565b600060088302620003e27fffffffffffffffffffffffffffffffffffffffffffffffffffffffffffffffff82620003a3565b620003ee8683620003a3565b95508019841693508086168417925050509392505050565b6000819050919050565b6000819050919050565b60006200043b620004356200042f8462000406565b62000410565b62000406565b9050919050565b6000819050919050565b62000457836200041a565b6200046f620004668262000442565b848454620003b0565b825550505050565b600090565b6200048662000477565b620004938184846200044c565b505050565b5b81811015620004bb57620004af6000826200047c565b60018101905062000499565b5050565b601f8211156200050a57620004d4816200037e565b620004df8462000393565b81016020851015620004ef578190505b62000507620004fe8562000393565b83018262000498565b50505b505050565b600082821c905092915050565b60006200052f600019846008026200050f565b1980831691505092915050565b60006200054a83836200051c565b9150826002028217905092915050565b62000565826200030f565b67ffffffffffffffff81111562000581576200058062000126565b5b6200058d825462000349565b6200059a828285620004bf565b600060209050601f831160018114620005d25760008415620005bd578287015190505b620005c985826200053c565b86555062000639565b601f198416620005e2866200037e565b60005b828110156200060c57848901518255600182019150602085019450602081019050620005e5565b868310156200062c578489015162000628601f8916826200051c565b8355505b6001600288020188555050505b505050505050565b600082825260208201905092915050565b7f4d616f4d616f546f6b656e000000000000000000000000000000000000000000600082015250565b60006200068a600b8362000641565b9150620006978262000652565b602082019050919050565b7f4d4d540000000000000000000000000000000000000000000000000000000000600082015250565b6000620006da60038362000641565b9150620006e782620006a2565b602082019050919050565b600060408201905081810360008301526200070d816200067b565b905081810360208301526200072281620006cb565b9050919050565b613a6380620007396000396000f3fe608060405234801561001057600080fd5b50600436106101c45760003560e01c806376993427116100f9578063c3c7059111610097578063ce4400da11610071578063ce4400da14610519578063e985e9c514610549578063f13a571f14610579578063f7746e3614610597576101c4565b8063c3c705911461049b578063c6d9cb18146104cb578063c87b56dd146104e9576101c4565b80639b3e2787116100d35780639b3e278714610415578063a22cb46514610445578063a5adf8ea14610461578063b88d4fde1461047f576101c4565b806376993427146103bb578063842992fd146103d957806395d89b41146103f7576101c4565b8063297a1f56116101665780634a562885116101405780634a562885146103235780636305ad7d1461033f5780636352211e1461035b57806370a082311461038b576101c4565b8063297a1f56146102cb5780632f2f4859146102e957806342842e0e14610307576101c4565b8063095ea7b3116101a2578063095ea7b3146102475780630ecbcdab146102635780631db8bd441461027f57806323b872dd146102af576101c4565b806301ffc9a7146101c957806306fdde03146101f9578063081812fc14610217575b600080fd5b6101e360048036038101906101de9190612bf5565b6105ca565b6040516101f09190612c3d565b60405180910390f35b6102016106ac565b60405161020e9190612ce8565b60405180910390f35b610231600480360381019061022c9190612d40565b61073e565b60405161023e9190612dae565b60405180910390f35b610261600480360381019061025c9190612df5565b61075a565b005b61027d60048036038101906102789190612e35565b610770565b005b61029960048036038101906102949190612d40565b6109e7565b6040516102a69190612dae565b60405180910390f35b6102c960048036038101906102c49190612e75565b610b42565b005b6102d3610c44565b6040516102e09190612ed7565b60405180910390f35b6102f1610c4a565b6040516102fe9190612ce8565b60405180910390f35b610321600480360381019061031c9190612e75565b610c87565b005b61033d60048036038101906103389190612d40565b610ca7565b005b61035960048036038101906103549190612ef2565b610e78565b005b61037560048036038101906103709190612d40565b61100d565b6040516103829190612dae565b60405180910390f35b6103a560048036038101906103a09190612ef2565b61101f565b6040516103b29190612ed7565b60405180910390f35b6103c36110d9565b6040516103d09190612f7e565b60405180910390f35b6103e16110ff565b6040516103ee91906130bb565b60405180910390f35b6103ff611394565b60405161040c9190612ce8565b60405180910390f35b61042f600480360381019061042a9190612df5565b611426565b60405161043c9190612ed7565b60405180910390f35b61045f600480360381019061045a9190613109565b611457565b005b61046961146d565b60405161047691906130bb565b60405180910390f35b6104996004803603810190610494919061327e565b6116c5565b005b6104b560048036038101906104b09190612d40565b6116e2565b6040516104c29190612dae565b60405180910390f35b6104d3611798565b6040516104e091906130bb565b60405180910390f35b61050360048036038101906104fe9190612d40565b611a2d565b6040516105109190612ce8565b60405180910390f35b610533600480360381019061052e9190612d40565b611a96565b6040516105409190612c3d565b60405180910390f35b610563600480360381019061055e9190613301565b611c01565b6040516105709190612c3d565b60405180910390f35b610581611c95565b60405161058e9190612ed7565b60405180910390f35b6105b160048036038101906105ac9190612d40565b611c9b565b6040516105c19493929190613341565b60405180910390f35b60007f80ac58cd000000000000000000000000000000000000000000000000000000007bffffffffffffffffffffffffffffffffffffffffffffffffffffffff1916827bffffffffffffffffffffffffffffffffffffffffffffffffffffffff1916148061069557507f5b5e139f000000000000000000000000000000000000000000000000000000007bffffffffffffffffffffffffffffffffffffffffffffffffffffffff1916827bffffffffffffffffffffffffffffffffffffffffffffffffffffffff1916145b806106a557506106a482611d0b565b5b9050919050565b6060600080546106bb906133b5565b80601f01602080910402602001604051908101604052809291908181526020018280546106e7906133b5565b80156107345780601f1061070957610100808354040283529160200191610734565b820191906000526020600020905b81548152906001019060200180831161071757829003601f168201915b5050505050905090565b600061074982611d75565b5061075382611dfd565b9050919050565b61076c8282610767611e3a565b611e42565b5050565b60085482106107b4576040517f08c379a00000000000000000000000000000000000000000000000000000000081526004016107ab90613432565b60405180910390fd5b60006006600084815260200190815260200160002090503373ffffffffffffffffffffffffffffffffffffffff168160010160009054906101000a900473ffffffffffffffffffffffffffffffffffffffff1673ffffffffffffffffffffffffffffffffffffffff160361085d576040517f08c379a00000000000000000000000000000000000000000000000000000000081526004016108549061349e565b60405180910390fd5b338160020160006101000a81548173ffffffffffffffffffffffffffffffffffffffff021916908373ffffffffffffffffffffffffffffffffffffffff160217905550600042905082816108b191906134ed565b8260030181905550600a60009054906101000a900473ffffffffffffffffffffffffffffffffffffffff1673ffffffffffffffffffffffffffffffffffffffff166323b872dd338460010160009054906101000a900473ffffffffffffffffffffffffffffffffffffffff16866040518463ffffffff1660e01b815260040161093c93929190613521565b6020604051808303816000875af115801561095b573d6000803e3d6000fd5b505050506040513d601f19601f8201168201806040525081019061097f919061356d565b507f8879d78706834dc00d82232992f71250fab6a1f70b08260968253950083d88cd848360020160009054906101000a900473ffffffffffffffffffffffffffffffffffffffff1683866040516109d9949392919061359a565b60405180910390a150505050565b6000806008548310610a2e576040517f08c379a0000000000000000000000000000000000000000000000000000000008152600401610a2590613432565b60405180910390fd5b60005b600854811015610b3857808403610b2557600073ffffffffffffffffffffffffffffffffffffffff166006600083815260200190815260200160002060020160009054906101000a900473ffffffffffffffffffffffffffffffffffffffff1673ffffffffffffffffffffffffffffffffffffffff1603610ae7576040517f08c379a0000000000000000000000000000000000000000000000000000000008152600401610ade9061362b565b60405180910390fd5b6006600082815260200190815260200160002060020160009054906101000a900473ffffffffffffffffffffffffffffffffffffffff169150610b38565b8080610b309061364b565b915050610a31565b5080915050919050565b600073ffffffffffffffffffffffffffffffffffffffff168273ffffffffffffffffffffffffffffffffffffffff1603610bb45760006040517f64a0ae92000000000000000000000000000000000000000000000000000000008152600401610bab9190612dae565b60405180910390fd5b6000610bc88383610bc3611e3a565b611e54565b90508373ffffffffffffffffffffffffffffffffffffffff168173ffffffffffffffffffffffffffffffffffffffff1614610c3e578382826040517f64283d7b000000000000000000000000000000000000000000000000000000008152600401610c3593929190613693565b60405180910390fd5b50505050565b60085481565b60606040518060400160405280600b81526020017f68656c6c6f20776f726c64000000000000000000000000000000000000000000815250905090565b610ca2838383604051806020016040528060008152506116c5565b505050565b6008548110610ceb576040517f08c379a0000000000000000000000000000000000000000000000000000000008152600401610ce290613432565b60405180910390fd5b60006006600083815260200190815260200160002090503373ffffffffffffffffffffffffffffffffffffffff168160010160009054906101000a900473ffffffffffffffffffffffffffffffffffffffff1673ffffffffffffffffffffffffffffffffffffffff1603610d94576040517f08c379a0000000000000000000000000000000000000000000000000000000008152600401610d8b90613716565b60405180910390fd5b3373ffffffffffffffffffffffffffffffffffffffff168160020160009054906101000a900473ffffffffffffffffffffffffffffffffffffffff1673ffffffffffffffffffffffffffffffffffffffff1614610e26576040517f08c379a0000000000000000000000000000000000000000000000000000000008152600401610e1d906137a8565b60405180910390fd5b60008160020160006101000a81548173ffffffffffffffffffffffffffffffffffffffff021916908373ffffffffffffffffffffffffffffffffffffffff160217905550600081600301819055505050565b6009546001600854610e8a91906134ed565b10610eca576040517f08c379a0000000000000000000000000000000000000000000000000000000008152600401610ec190613814565b60405180910390fd5b610ed68160085461206e565b8060066000600854815260200190815260200160002060010160006101000a81548173ffffffffffffffffffffffffffffffffffffffff021916908373ffffffffffffffffffffffffffffffffffffffff16021790555060085460066000600854815260200190815260200160002060000181905550600760008273ffffffffffffffffffffffffffffffffffffffff1673ffffffffffffffffffffffffffffffffffffffff168152602001908152602001600020600854908060018154018082558091505060019003906000526020600020016000909190919091505560086000815480929190610fc79061364b565b919050555061100a6040518060400160405280601281526020017f6765742061206361722073756363657373210000000000000000000000000000815250612167565b50565b600061101882611d75565b9050919050565b60008073ffffffffffffffffffffffffffffffffffffffff168273ffffffffffffffffffffffffffffffffffffffff16036110925760006040517f89c62b640000000000000000000000000000000000000000000000000000000081526004016110899190612dae565b60405180910390fd5b600360008373ffffffffffffffffffffffffffffffffffffffff1673ffffffffffffffffffffffffffffffffffffffff168152602001908152602001600020549050919050565b600a60009054906101000a900473ffffffffffffffffffffffffffffffffffffffff1681565b60606000805b60085481101561119a573373ffffffffffffffffffffffffffffffffffffffff166006600083815260200190815260200160002060010160009054906101000a900473ffffffffffffffffffffffffffffffffffffffff1673ffffffffffffffffffffffffffffffffffffffff16146111875781806111839061364b565b9250505b80806111929061364b565b915050611105565b5060008167ffffffffffffffff8111156111b7576111b6613153565b5b6040519080825280602002602001820160405280156111f057816020015b6111dd612b2b565b8152602001906001900390816111d55790505b5090506000915060005b60085481101561138b573373ffffffffffffffffffffffffffffffffffffffff166006600083815260200190815260200160002060010160009054906101000a900473ffffffffffffffffffffffffffffffffffffffff1673ffffffffffffffffffffffffffffffffffffffff16146113785760066000828152602001908152602001600020604051806080016040529081600082015481526020016001820160009054906101000a900473ffffffffffffffffffffffffffffffffffffffff1673ffffffffffffffffffffffffffffffffffffffff1673ffffffffffffffffffffffffffffffffffffffff1681526020016002820160009054906101000a900473ffffffffffffffffffffffffffffffffffffffff1673ffffffffffffffffffffffffffffffffffffffff1673ffffffffffffffffffffffffffffffffffffffff16815260200160038201548152505082848151811061135e5761135d613834565b5b602002602001018190525082806113749061364b565b9350505b80806113839061364b565b9150506111fa565b50809250505090565b6060600180546113a3906133b5565b80601f01602080910402602001604051908101604052809291908181526020018280546113cf906133b5565b801561141c5780601f106113f15761010080835404028352916020019161141c565b820191906000526020600020905b8154815290600101906020018083116113ff57829003601f168201915b5050505050905090565b6007602052816000526040600020818154811061144257600080fd5b90600052602060002001600091509150505481565b611469611462611e3a565b8383612200565b5050565b60606000600760003373ffffffffffffffffffffffffffffffffffffffff1673ffffffffffffffffffffffffffffffffffffffff1681526020019081526020016000208054905067ffffffffffffffff8111156114cd576114cc613153565b5b60405190808252806020026020018201604052801561150657816020015b6114f3612b2b565b8152602001906001900390816114eb5790505b50905060005b815181101561167f5760066000600760003373ffffffffffffffffffffffffffffffffffffffff1673ffffffffffffffffffffffffffffffffffffffff168152602001908152602001600020838154811061156a57611569613834565b5b90600052602060002001548152602001908152602001600020604051806080016040529081600082015481526020016001820160009054906101000a900473ffffffffffffffffffffffffffffffffffffffff1673ffffffffffffffffffffffffffffffffffffffff1673ffffffffffffffffffffffffffffffffffffffff1681526020016002820160009054906101000a900473ffffffffffffffffffffffffffffffffffffffff1673ffffffffffffffffffffffffffffffffffffffff1673ffffffffffffffffffffffffffffffffffffffff16815260200160038201548152505082828151811061166157611660613834565b5b602002602001018190525080806116779061364b565b91505061150c565b506116be6040518060400160405280601781526020017f676574206f776e65642063617273207375636365737321000000000000000000815250612167565b8091505090565b6116d0848484610b42565b6116dc8484848461236f565b50505050565b6000806008548310611729576040517f08c379a000000000000000000000000000000000000000000000000000000000815260040161172090613432565b60405180910390fd5b60005b60085481101561178e5780840361177b576006600082815260200190815260200160002060010160009054906101000a900473ffffffffffffffffffffffffffffffffffffffff16915061178e565b80806117869061364b565b91505061172c565b5080915050919050565b60606000805b600854811015611833573373ffffffffffffffffffffffffffffffffffffffff166006600083815260200190815260200160002060020160009054906101000a900473ffffffffffffffffffffffffffffffffffffffff1673ffffffffffffffffffffffffffffffffffffffff160361182057818061181c9061364b565b9250505b808061182b9061364b565b91505061179e565b5060008167ffffffffffffffff8111156118505761184f613153565b5b60405190808252806020026020018201604052801561188957816020015b611876612b2b565b81526020019060019003908161186e5790505b5090506000915060005b600854811015611a24573373ffffffffffffffffffffffffffffffffffffffff166006600083815260200190815260200160002060020160009054906101000a900473ffffffffffffffffffffffffffffffffffffffff1673ffffffffffffffffffffffffffffffffffffffff1603611a115760066000828152602001908152602001600020604051806080016040529081600082015481526020016001820160009054906101000a900473ffffffffffffffffffffffffffffffffffffffff1673ffffffffffffffffffffffffffffffffffffffff1673ffffffffffffffffffffffffffffffffffffffff1681526020016002820160009054906101000a900473ffffffffffffffffffffffffffffffffffffffff1673ffffffffffffffffffffffffffffffffffffffff1673ffffffffffffffffffffffffffffffffffffffff1681526020016003820154815250508284815181106119f7576119f6613834565b5b60200260200101819052508280611a0d9061364b565b9350505b8080611a1c9061364b565b915050611893565b50809250505090565b6060611a3882611d75565b506000611a43612526565b90506000815111611a635760405180602001604052806000815250611a8e565b80611a6d8461253d565b604051602001611a7e92919061389f565b6040516020818303038152906040525b915050919050565b60006008548210611adc576040517f08c379a0000000000000000000000000000000000000000000000000000000008152600401611ad390613432565b60405180910390fd5b60008073ffffffffffffffffffffffffffffffffffffffff166006600085815260200190815260200160002060020160009054906101000a900473ffffffffffffffffffffffffffffffffffffffff1673ffffffffffffffffffffffffffffffffffffffff1603611b54576001905080915050611bfc565b600042905060066000858152602001908152602001600020600301548110611bf6576001915060006006600086815260200190815260200160002060020160006101000a81548173ffffffffffffffffffffffffffffffffffffffff021916908373ffffffffffffffffffffffffffffffffffffffff160217905550600060066000868152602001908152602001600020600301819055508192505050611bfc565b81925050505b919050565b6000600560008473ffffffffffffffffffffffffffffffffffffffff1673ffffffffffffffffffffffffffffffffffffffff16815260200190815260200160002060008373ffffffffffffffffffffffffffffffffffffffff1673ffffffffffffffffffffffffffffffffffffffff16815260200190815260200160002060009054906101000a900460ff16905092915050565b60095481565b60066020528060005260406000206000915090508060000154908060010160009054906101000a900473ffffffffffffffffffffffffffffffffffffffff16908060020160009054906101000a900473ffffffffffffffffffffffffffffffffffffffff16908060030154905084565b60007f01ffc9a7000000000000000000000000000000000000000000000000000000007bffffffffffffffffffffffffffffffffffffffffffffffffffffffff1916827bffffffffffffffffffffffffffffffffffffffffffffffffffffffff1916149050919050565b600080611d818361260b565b9050600073ffffffffffffffffffffffffffffffffffffffff168173ffffffffffffffffffffffffffffffffffffffff1603611df457826040517f7e273289000000000000000000000000000000000000000000000000000000008152600401611deb9190612ed7565b60405180910390fd5b80915050919050565b60006004600083815260200190815260200160002060009054906101000a900473ffffffffffffffffffffffffffffffffffffffff169050919050565b600033905090565b611e4f8383836001612648565b505050565b600080611e608461260b565b9050600073ffffffffffffffffffffffffffffffffffffffff168373ffffffffffffffffffffffffffffffffffffffff1614611ea257611ea181848661280d565b5b600073ffffffffffffffffffffffffffffffffffffffff168173ffffffffffffffffffffffffffffffffffffffff1614611f3357611ee4600085600080612648565b6001600360008373ffffffffffffffffffffffffffffffffffffffff1673ffffffffffffffffffffffffffffffffffffffff168152602001908152602001600020600082825403925050819055505b600073ffffffffffffffffffffffffffffffffffffffff168573ffffffffffffffffffffffffffffffffffffffff1614611fb6576001600360008773ffffffffffffffffffffffffffffffffffffffff1673ffffffffffffffffffffffffffffffffffffffff168152602001908152602001600020600082825401925050819055505b846002600086815260200190815260200160002060006101000a81548173ffffffffffffffffffffffffffffffffffffffff021916908373ffffffffffffffffffffffffffffffffffffffff160217905550838573ffffffffffffffffffffffffffffffffffffffff168273ffffffffffffffffffffffffffffffffffffffff167fddf252ad1be2c89b69c2b068fc378daa952ba7f163c4a11628f55a4df523b3ef60405160405180910390a4809150509392505050565b600073ffffffffffffffffffffffffffffffffffffffff168273ffffffffffffffffffffffffffffffffffffffff16036120e05760006040517f64a0ae920000000000000000000000000000000000000000000000000000000081526004016120d79190612dae565b60405180910390fd5b60006120ee83836000611e54565b9050600073ffffffffffffffffffffffffffffffffffffffff168173ffffffffffffffffffffffffffffffffffffffff16146121625760006040517f73c6ac6e0000000000000000000000000000000000000000000000000000000081526004016121599190612dae565b60405180910390fd5b505050565b6121fd8160405160240161217b9190612ce8565b6040516020818303038152906040527f41304fac000000000000000000000000000000000000000000000000000000007bffffffffffffffffffffffffffffffffffffffffffffffffffffffff19166020820180517bffffffffffffffffffffffffffffffffffffffffffffffffffffffff83818316178352505050506128d1565b50565b600073ffffffffffffffffffffffffffffffffffffffff168273ffffffffffffffffffffffffffffffffffffffff160361227157816040517f5b08ba180000000000000000000000000000000000000000000000000000000081526004016122689190612dae565b60405180910390fd5b80600560008573ffffffffffffffffffffffffffffffffffffffff1673ffffffffffffffffffffffffffffffffffffffff16815260200190815260200160002060008473ffffffffffffffffffffffffffffffffffffffff1673ffffffffffffffffffffffffffffffffffffffff16815260200190815260200160002060006101000a81548160ff0219169083151502179055508173ffffffffffffffffffffffffffffffffffffffff168373ffffffffffffffffffffffffffffffffffffffff167f17307eab39ab6107e8899845ad3d59bd9653f200f220920489ca2b5937696c31836040516123629190612c3d565b60405180910390a3505050565b60008373ffffffffffffffffffffffffffffffffffffffff163b1115612520578273ffffffffffffffffffffffffffffffffffffffff1663150b7a026123b3611e3a565b8685856040518563ffffffff1660e01b81526004016123d59493929190613918565b6020604051808303816000875af192505050801561241157506040513d601f19601f8201168201806040525081019061240e9190613979565b60015b612495573d8060008114612441576040519150601f19603f3d011682016040523d82523d6000602084013e612446565b606091505b50600081510361248d57836040517f64a0ae920000000000000000000000000000000000000000000000000000000081526004016124849190612dae565b60405180910390fd5b805181602001fd5b63150b7a0260e01b7bffffffffffffffffffffffffffffffffffffffffffffffffffffffff1916817bffffffffffffffffffffffffffffffffffffffffffffffffffffffff19161461251e57836040517f64a0ae920000000000000000000000000000000000000000000000000000000081526004016125159190612dae565b60405180910390fd5b505b50505050565b606060405180602001604052806000815250905090565b60606000600161254c846128eb565b01905060008167ffffffffffffffff81111561256b5761256a613153565b5b6040519080825280601f01601f19166020018201604052801561259d5781602001600182028036833780820191505090505b509050600082602001820190505b600115612600578080600190039150507f3031323334353637383961626364656600000000000000000000000000000000600a86061a8153600a85816125f4576125f36139a6565b5b049450600085036125ab575b819350505050919050565b60006002600083815260200190815260200160002060009054906101000a900473ffffffffffffffffffffffffffffffffffffffff169050919050565b80806126815750600073ffffffffffffffffffffffffffffffffffffffff168273ffffffffffffffffffffffffffffffffffffffff1614155b156127b557600061269184611d75565b9050600073ffffffffffffffffffffffffffffffffffffffff168373ffffffffffffffffffffffffffffffffffffffff16141580156126fc57508273ffffffffffffffffffffffffffffffffffffffff168173ffffffffffffffffffffffffffffffffffffffff1614155b801561270f575061270d8184611c01565b155b1561275157826040517fa9fbf51f0000000000000000000000000000000000000000000000000000000081526004016127489190612dae565b60405180910390fd5b81156127b357838573ffffffffffffffffffffffffffffffffffffffff168273ffffffffffffffffffffffffffffffffffffffff167f8c5be1e5ebec7d5bd14f71427d1e84f3dd0314c0f7b2291e5b200ac8c7c3b92560405160405180910390a45b505b836004600085815260200190815260200160002060006101000a81548173ffffffffffffffffffffffffffffffffffffffff021916908373ffffffffffffffffffffffffffffffffffffffff16021790555050505050565b612818838383612a3e565b6128cc57600073ffffffffffffffffffffffffffffffffffffffff168373ffffffffffffffffffffffffffffffffffffffff160361288d57806040517f7e2732890000000000000000000000000000000000000000000000000000000081526004016128849190612ed7565b60405180910390fd5b81816040517f177e802f0000000000000000000000000000000000000000000000000000000081526004016128c39291906139d5565b60405180910390fd5b505050565b6128e8816128e0612aff612b20565b63ffffffff16565b50565b600080600090507a184f03e93ff9f4daa797ed6e38ed64bf6a1f0100000000000000008310612949577a184f03e93ff9f4daa797ed6e38ed64bf6a1f010000000000000000838161293f5761293e6139a6565b5b0492506040810190505b6d04ee2d6d415b85acef81000000008310612986576d04ee2d6d415b85acef8100000000838161297c5761297b6139a6565b5b0492506020810190505b662386f26fc1000083106129b557662386f26fc1000083816129ab576129aa6139a6565b5b0492506010810190505b6305f5e10083106129de576305f5e10083816129d4576129d36139a6565b5b0492506008810190505b6127108310612a035761271083816129f9576129f86139a6565b5b0492506004810190505b60648310612a265760648381612a1c57612a1b6139a6565b5b0492506002810190505b600a8310612a35576001810190505b80915050919050565b60008073ffffffffffffffffffffffffffffffffffffffff168373ffffffffffffffffffffffffffffffffffffffff1614158015612af657508273ffffffffffffffffffffffffffffffffffffffff168473ffffffffffffffffffffffffffffffffffffffff161480612ab75750612ab68484611c01565b5b80612af557508273ffffffffffffffffffffffffffffffffffffffff16612add83611dfd565b73ffffffffffffffffffffffffffffffffffffffff16145b5b90509392505050565b60006a636f6e736f6c652e6c6f679050600080835160208501845afa505050565b612b7f819050919050565b604051806080016040528060008152602001600073ffffffffffffffffffffffffffffffffffffffff168152602001600073ffffffffffffffffffffffffffffffffffffffff168152602001600081525090565b612b876139fe565b565b6000604051905090565b600080fd5b600080fd5b60007fffffffff0000000000000000000000000000000000000000000000000000000082169050919050565b612bd281612b9d565b8114612bdd57600080fd5b50565b600081359050612bef81612bc9565b92915050565b600060208284031215612c0b57612c0a612b93565b5b6000612c1984828501612be0565b91505092915050565b60008115159050919050565b612c3781612c22565b82525050565b6000602082019050612c526000830184612c2e565b92915050565b600081519050919050565b600082825260208201905092915050565b60005b83811015612c92578082015181840152602081019050612c77565b60008484015250505050565b6000601f19601f8301169050919050565b6000612cba82612c58565b612cc48185612c63565b9350612cd4818560208601612c74565b612cdd81612c9e565b840191505092915050565b60006020820190508181036000830152612d028184612caf565b905092915050565b6000819050919050565b612d1d81612d0a565b8114612d2857600080fd5b50565b600081359050612d3a81612d14565b92915050565b600060208284031215612d5657612d55612b93565b5b6000612d6484828501612d2b565b91505092915050565b600073ffffffffffffffffffffffffffffffffffffffff82169050919050565b6000612d9882612d6d565b9050919050565b612da881612d8d565b82525050565b6000602082019050612dc36000830184612d9f565b92915050565b612dd281612d8d565b8114612ddd57600080fd5b50565b600081359050612def81612dc9565b92915050565b60008060408385031215612e0c57612e0b612b93565b5b6000612e1a85828601612de0565b9250506020612e2b85828601612d2b565b9150509250929050565b60008060408385031215612e4c57612e4b612b93565b5b6000612e5a85828601612d2b565b9250506020612e6b85828601612d2b565b9150509250929050565b600080600060608486031215612e8e57612e8d612b93565b5b6000612e9c86828701612de0565b9350506020612ead86828701612de0565b9250506040612ebe86828701612d2b565b9150509250925092565b612ed181612d0a565b82525050565b6000602082019050612eec6000830184612ec8565b92915050565b600060208284031215612f0857612f07612b93565b5b6000612f1684828501612de0565b91505092915050565b6000819050919050565b6000612f44612f3f612f3a84612d6d565b612f1f565b612d6d565b9050919050565b6000612f5682612f29565b9050919050565b6000612f6882612f4b565b9050919050565b612f7881612f5d565b82525050565b6000602082019050612f936000830184612f6f565b92915050565b600081519050919050565b600082825260208201905092915050565b6000819050602082019050919050565b612fce81612d0a565b82525050565b612fdd81612d8d565b82525050565b608082016000820151612ff96000850182612fc5565b50602082015161300c6020850182612fd4565b50604082015161301f6040850182612fd4565b5060608201516130326060850182612fc5565b50505050565b60006130448383612fe3565b60808301905092915050565b6000602082019050919050565b600061306882612f99565b6130728185612fa4565b935061307d83612fb5565b8060005b838110156130ae5781516130958882613038565b97506130a083613050565b925050600181019050613081565b5085935050505092915050565b600060208201905081810360008301526130d5818461305d565b905092915050565b6130e681612c22565b81146130f157600080fd5b50565b600081359050613103816130dd565b92915050565b600080604083850312156131205761311f612b93565b5b600061312e85828601612de0565b925050602061313f858286016130f4565b9150509250929050565b600080fd5b600080fd5b7f4e487b7100000000000000000000000000000000000000000000000000000000600052604160045260246000fd5b61318b82612c9e565b810181811067ffffffffffffffff821117156131aa576131a9613153565b5b80604052505050565b60006131bd612b89565b90506131c98282613182565b919050565b600067ffffffffffffffff8211156131e9576131e8613153565b5b6131f282612c9e565b9050602081019050919050565b82818337600083830152505050565b600061322161321c846131ce565b6131b3565b90508281526020810184848401111561323d5761323c61314e565b5b6132488482856131ff565b509392505050565b600082601f83011261326557613264613149565b5b813561327584826020860161320e565b91505092915050565b6000806000806080858703121561329857613297612b93565b5b60006132a687828801612de0565b94505060206132b787828801612de0565b93505060406132c887828801612d2b565b925050606085013567ffffffffffffffff8111156132e9576132e8612b98565b5b6132f587828801613250565b91505092959194509250565b6000806040838503121561331857613317612b93565b5b600061332685828601612de0565b925050602061333785828601612de0565b9150509250929050565b60006080820190506133566000830187612ec8565b6133636020830186612d9f565b6133706040830185612d9f565b61337d6060830184612ec8565b95945050505050565b7f4e487b7100000000000000000000000000000000000000000000000000000000600052602260045260246000fd5b600060028204905060018216806133cd57607f821691505b6020821081036133e0576133df613386565b5b50919050565b7f696e76616c696420636172206964000000000000000000000000000000000000600082015250565b600061341c600e83612c63565b9150613427826133e6565b602082019050919050565b6000602082019050818103600083015261344b8161340f565b9050919050565b7f63616e6e6f7420626f72726f7720796f75727320636172000000000000000000600082015250565b6000613488601783612c63565b915061349382613452565b602082019050919050565b600060208201905081810360008301526134b78161347b565b9050919050565b7f4e487b7100000000000000000000000000000000000000000000000000000000600052601160045260246000fd5b60006134f882612d0a565b915061350383612d0a565b925082820190508082111561351b5761351a6134be565b5b92915050565b60006060820190506135366000830186612d9f565b6135436020830185612d9f565b6135506040830184612ec8565b949350505050565b600081519050613567816130dd565b92915050565b60006020828403121561358357613582612b93565b5b600061359184828501613558565b91505092915050565b60006080820190506135af6000830187612ec8565b6135bc6020830186612d9f565b6135c96040830185612ec8565b6135d66060830184612ec8565b95945050505050565b7f636172206e6f7420626f72726f77656400000000000000000000000000000000600082015250565b6000613615601083612c63565b9150613620826135df565b602082019050919050565b6000602082019050818103600083015261364481613608565b9050919050565b600061365682612d0a565b91507fffffffffffffffffffffffffffffffffffffffffffffffffffffffffffffffff8203613688576136876134be565b5b600182019050919050565b60006060820190506136a86000830186612d9f565b6136b56020830185612ec8565b6136c26040830184612d9f565b949350505050565b7f63616e6e6f742072657475726e20796f75727320636172000000000000000000600082015250565b6000613700601783612c63565b915061370b826136ca565b602082019050919050565b6000602082019050818103600083015261372f816136f3565b9050919050565b7f796f75206e6f7420626f72726f77207468697320636172206f7220616c72656160008201527f64792072657475726e0000000000000000000000000000000000000000000000602082015250565b6000613792602983612c63565b915061379d82613736565b604082019050919050565b600060208201905081810360008301526137c181613785565b9050919050565b7f4f766572204d61782043617220636f756e747321000000000000000000000000600082015250565b60006137fe601483612c63565b9150613809826137c8565b602082019050919050565b6000602082019050818103600083015261382d816137f1565b9050919050565b7f4e487b7100000000000000000000000000000000000000000000000000000000600052603260045260246000fd5b600081905092915050565b600061387982612c58565b6138838185613863565b9350613893818560208601612c74565b80840191505092915050565b60006138ab828561386e565b91506138b7828461386e565b91508190509392505050565b600081519050919050565b600082825260208201905092915050565b60006138ea826138c3565b6138f481856138ce565b9350613904818560208601612c74565b61390d81612c9e565b840191505092915050565b600060808201905061392d6000830187612d9f565b61393a6020830186612d9f565b6139476040830185612ec8565b818103606083015261395981846138df565b905095945050505050565b60008151905061397381612bc9565b92915050565b60006020828403121561398f5761398e612b93565b5b600061399d84828501613964565b91505092915050565b7f4e487b7100000000000000000000000000000000000000000000000000000000600052601260045260246000fd5b60006040820190506139ea6000830185612d9f565b6139f76020830184612ec8565b9392505050565b7f4e487b7100000000000000000000000000000000000000000000000000000000600052605160045260246000fdfea2646970667358221220bc444cd24f01c177db9bf899e7474248658c34f96cda87b69f52d81b46dbcb5564736f6c6343000814003360806040523480156200001157600080fd5b5060405162001639380380620016398339818101604052810190620000379190620001fa565b818181600390816200004a9190620004ca565b5080600490816200005c9190620004ca565b5050505050620005b1565b6000604051905090565b600080fd5b600080fd5b600080fd5b600080fd5b6000601f19601f8301169050919050565b7f4e487b7100000000000000000000000000000000000000000000000000000000600052604160045260246000fd5b620000d08262000085565b810181811067ffffffffffffffff82111715620000f257620000f162000096565b5b80604052505050565b60006200010762000067565b9050620001158282620000c5565b919050565b600067ffffffffffffffff82111562000138576200013762000096565b5b620001438262000085565b9050602081019050919050565b60005b838110156200017057808201518184015260208101905062000153565b60008484015250505050565b6000620001936200018d846200011a565b620000fb565b905082815260208101848484011115620001b257620001b162000080565b5b620001bf84828562000150565b509392505050565b600082601f830112620001df57620001de6200007b565b5b8151620001f18482602086016200017c565b91505092915050565b6000806040838503121562000214576200021362000071565b5b600083015167ffffffffffffffff81111562000235576200023462000076565b5b6200024385828601620001c7565b925050602083015167ffffffffffffffff81111562000267576200026662000076565b5b6200027585828601620001c7565b9150509250929050565b600081519050919050565b7f4e487b7100000000000000000000000000000000000000000000000000000000600052602260045260246000fd5b60006002820490506001821680620002d257607f821691505b602082108103620002e857620002e76200028a565b5b50919050565b60008190508160005260206000209050919050565b60006020601f8301049050919050565b600082821b905092915050565b600060088302620003527fffffffffffffffffffffffffffffffffffffffffffffffffffffffffffffffff8262000313565b6200035e868362000313565b95508019841693508086168417925050509392505050565b6000819050919050565b6000819050919050565b6000620003ab620003a56200039f8462000376565b62000380565b62000376565b9050919050565b6000819050919050565b620003c7836200038a565b620003df620003d682620003b2565b84845462000320565b825550505050565b600090565b620003f6620003e7565b62000403818484620003bc565b505050565b5b818110156200042b576200041f600082620003ec565b60018101905062000409565b5050565b601f8211156200047a576200044481620002ee565b6200044f8462000303565b810160208510156200045f578190505b620004776200046e8562000303565b83018262000408565b50505b505050565b600082821c905092915050565b60006200049f600019846008026200047f565b1980831691505092915050565b6000620004ba83836200048c565b9150826002028217905092915050565b620004d5826200027f565b67ffffffffffffffff811115620004f157620004f062000096565b5b620004fd8254620002b9565b6200050a8282856200042f565b600060209050601f8311600181146200054257600084156200052d578287015190505b620005398582620004ac565b865550620005a9565b601f1984166200055286620002ee565b60005b828110156200057c5784890151825560018201915060208501945060208101905062000555565b868310156200059c578489015162000598601f8916826200048c565b8355505b6001600288020188555050505b505050505050565b61107880620005c16000396000f3fe608060405234801561001057600080fd5b506004361061009e5760003560e01c80633884d635116100665780633884d6351461015d57806370a082311461016757806395d89b4114610197578063a9059cbb146101b5578063dd62ed3e146101e55761009e565b806306fdde03146100a3578063095ea7b3146100c157806318160ddd146100f157806323b872dd1461010f578063313ce5671461013f575b600080fd5b6100ab610215565b6040516100b89190610c3a565b60405180910390f35b6100db60048036038101906100d69190610cf5565b6102a7565b6040516100e89190610d50565b60405180910390f35b6100f96102ca565b6040516101069190610d7a565b60405180910390f35b61012960048036038101906101249190610d95565b6102d4565b6040516101369190610d50565b60405180910390f35b610147610303565b6040516101549190610e04565b60405180910390f35b61016561030c565b005b610181600480360381019061017c9190610e1f565b610406565b60405161018e9190610d7a565b60405180910390f35b61019f61044e565b6040516101ac9190610c3a565b60405180910390f35b6101cf60048036038101906101ca9190610cf5565b6104e0565b6040516101dc9190610d50565b60405180910390f35b6101ff60048036038101906101fa9190610e4c565b610503565b60405161020c9190610d7a565b60405180910390f35b60606003805461022490610ebb565b80601f016020809104026020016040519081016040528092919081815260200182805461025090610ebb565b801561029d5780601f106102725761010080835404028352916020019161029d565b820191906000526020600020905b81548152906001019060200180831161028057829003601f168201915b5050505050905090565b6000806102b261058a565b90506102bf818585610592565b600191505092915050565b6000600254905090565b6000806102df61058a565b90506102ec8582856105a4565b6102f7858585610638565b60019150509392505050565b60006012905090565b60001515600560003373ffffffffffffffffffffffffffffffffffffffff1673ffffffffffffffffffffffffffffffffffffffff16815260200190815260200160002060009054906101000a900460ff1615151461039f576040517f08c379a000000000000000000000000000000000000000000000000000000000815260040161039690610f5e565b60405180910390fd5b6103ac33620f424061072c565b6001600560003373ffffffffffffffffffffffffffffffffffffffff1673ffffffffffffffffffffffffffffffffffffffff16815260200190815260200160002060006101000a81548160ff021916908315150217905550565b60008060008373ffffffffffffffffffffffffffffffffffffffff1673ffffffffffffffffffffffffffffffffffffffff168152602001908152602001600020549050919050565b60606004805461045d90610ebb565b80601f016020809104026020016040519081016040528092919081815260200182805461048990610ebb565b80156104d65780601f106104ab576101008083540402835291602001916104d6565b820191906000526020600020905b8154815290600101906020018083116104b957829003601f168201915b5050505050905090565b6000806104eb61058a565b90506104f8818585610638565b600191505092915050565b6000600160008473ffffffffffffffffffffffffffffffffffffffff1673ffffffffffffffffffffffffffffffffffffffff16815260200190815260200160002060008373ffffffffffffffffffffffffffffffffffffffff1673ffffffffffffffffffffffffffffffffffffffff16815260200190815260200160002054905092915050565b600033905090565b61059f83838360016107ae565b505050565b60006105b08484610503565b90507fffffffffffffffffffffffffffffffffffffffffffffffffffffffffffffffff81146106325781811015610622578281836040517ffb8f41b200000000000000000000000000000000000000000000000000000000815260040161061993929190610f8d565b60405180910390fd5b610631848484840360006107ae565b5b50505050565b600073ffffffffffffffffffffffffffffffffffffffff168373ffffffffffffffffffffffffffffffffffffffff16036106aa5760006040517f96c6fd1e0000000000000000000000000000000000000000000000000000000081526004016106a19190610fc4565b60405180910390fd5b600073ffffffffffffffffffffffffffffffffffffffff168273ffffffffffffffffffffffffffffffffffffffff160361071c5760006040517fec442f050000000000000000000000000000000000000000000000000000000081526004016107139190610fc4565b60405180910390fd5b610727838383610985565b505050565b600073ffffffffffffffffffffffffffffffffffffffff168273ffffffffffffffffffffffffffffffffffffffff160361079e5760006040517fec442f050000000000000000000000000000000000000000000000000000000081526004016107959190610fc4565b60405180910390fd5b6107aa60008383610985565b5050565b600073ffffffffffffffffffffffffffffffffffffffff168473ffffffffffffffffffffffffffffffffffffffff16036108205760006040517fe602df050000000000000000000000000000000000000000000000000000000081526004016108179190610fc4565b60405180910390fd5b600073ffffffffffffffffffffffffffffffffffffffff168373ffffffffffffffffffffffffffffffffffffffff16036108925760006040517f94280d620000000000000000000000000000000000000000000000000000000081526004016108899190610fc4565b60405180910390fd5b81600160008673ffffffffffffffffffffffffffffffffffffffff1673ffffffffffffffffffffffffffffffffffffffff16815260200190815260200160002060008573ffffffffffffffffffffffffffffffffffffffff1673ffffffffffffffffffffffffffffffffffffffff16815260200190815260200160002081905550801561097f578273ffffffffffffffffffffffffffffffffffffffff168473ffffffffffffffffffffffffffffffffffffffff167f8c5be1e5ebec7d5bd14f71427d1e84f3dd0314c0f7b2291e5b200ac8c7c3b925846040516109769190610d7a565b60405180910390a35b50505050565b600073ffffffffffffffffffffffffffffffffffffffff168373ffffffffffffffffffffffffffffffffffffffff16036109d75780600260008282546109cb919061100e565b92505081905550610aaa565b60008060008573ffffffffffffffffffffffffffffffffffffffff1673ffffffffffffffffffffffffffffffffffffffff16815260200190815260200160002054905081811015610a63578381836040517fe450d38c000000000000000000000000000000000000000000000000000000008152600401610a5a93929190610f8d565b60405180910390fd5b8181036000808673ffffffffffffffffffffffffffffffffffffffff1673ffffffffffffffffffffffffffffffffffffffff16815260200190815260200160002081905550505b600073ffffffffffffffffffffffffffffffffffffffff168273ffffffffffffffffffffffffffffffffffffffff1603610af35780600260008282540392505081905550610b40565b806000808473ffffffffffffffffffffffffffffffffffffffff1673ffffffffffffffffffffffffffffffffffffffff168152602001908152602001600020600082825401925050819055505b8173ffffffffffffffffffffffffffffffffffffffff168373ffffffffffffffffffffffffffffffffffffffff167fddf252ad1be2c89b69c2b068fc378daa952ba7f163c4a11628f55a4df523b3ef83604051610b9d9190610d7a565b60405180910390a3505050565b600081519050919050565b600082825260208201905092915050565b60005b83811015610be4578082015181840152602081019050610bc9565b60008484015250505050565b6000601f19601f8301169050919050565b6000610c0c82610baa565b610c168185610bb5565b9350610c26818560208601610bc6565b610c2f81610bf0565b840191505092915050565b60006020820190508181036000830152610c548184610c01565b905092915050565b600080fd5b600073ffffffffffffffffffffffffffffffffffffffff82169050919050565b6000610c8c82610c61565b9050919050565b610c9c81610c81565b8114610ca757600080fd5b50565b600081359050610cb981610c93565b92915050565b6000819050919050565b610cd281610cbf565b8114610cdd57600080fd5b50565b600081359050610cef81610cc9565b92915050565b60008060408385031215610d0c57610d0b610c5c565b5b6000610d1a85828601610caa565b9250506020610d2b85828601610ce0565b9150509250929050565b60008115159050919050565b610d4a81610d35565b82525050565b6000602082019050610d656000830184610d41565b92915050565b610d7481610cbf565b82525050565b6000602082019050610d8f6000830184610d6b565b92915050565b600080600060608486031215610dae57610dad610c5c565b5b6000610dbc86828701610caa565b9350506020610dcd86828701610caa565b9250506040610dde86828701610ce0565b9150509250925092565b600060ff82169050919050565b610dfe81610de8565b82525050565b6000602082019050610e196000830184610df5565b92915050565b600060208284031215610e3557610e34610c5c565b5b6000610e4384828501610caa565b91505092915050565b60008060408385031215610e6357610e62610c5c565b5b6000610e7185828601610caa565b9250506020610e8285828601610caa565b9150509250929050565b7f4e487b7100000000000000000000000000000000000000000000000000000000600052602260045260246000fd5b60006002820490506001821680610ed357607f821691505b602082108103610ee657610ee5610e8c565b5b50919050565b7f5468697320757365722068617320636c61696d65642061697264726f7020616c60008201527f7265616479000000000000000000000000000000000000000000000000000000602082015250565b6000610f48602583610bb5565b9150610f5382610eec565b604082019050919050565b60006020820190508181036000830152610f7781610f3b565b9050919050565b610f8781610c81565b82525050565b6000606082019050610fa26000830186610f7e565b610faf6020830185610d6b565b610fbc6040830184610d6b565b949350505050565b6000602082019050610fd96000830184610f7e565b92915050565b7f4e487b7100000000000000000000000000000000000000000000000000000000600052601160045260246000fd5b600061101982610cbf565b915061102483610cbf565b925082820190508082111561103c5761103b610fdf565b5b9291505056fea2646970667358221220b685ecf97e79456598318e8e085e2383a87d3677389cf810a58ec6a7f5a4570364736f6c63430008140033",
  "linkReferences": {},
  "deployedLinkReferences": {}
}