{
  "_format": "hh-sol-artifact-1",
  "contractName": "BorrowYourCar",
  "sourceName": "contracts/BorrowYourCar.sol",
  "abi": [
    {
      "inputs": [
        {
          "internalType": "string",
          "name": "name_",
          "type": "string"
        },
        {
          "internalType": "string",
          "name": "symbol_",
          "type": "string"
        }
      ],
      "stateMutability": "nonpayable",
      "type": "constructor"
    },
    {
      "inputs": [
        {
          "internalType": "address",
          "name": "sender",
          "type": "address"
        },
        {
          "internalType": "uint256",
          "name": "tokenId",
          "type": "uint256"
        },
        {
          "internalType": "address",
          "name": "owner",
          "type": "address"
        }
      ],
      "name": "ERC721IncorrectOwner",
      "type": "error"
    },
    {
      "inputs": [
        {
          "internalType": "address",
          "name": "operator",
          "type": "address"
        },
        {
          "internalType": "uint256",
          "name": "tokenId",
          "type": "uint256"
        }
      ],
      "name": "ERC721InsufficientApproval",
      "type": "error"
    },
    {
      "inputs": [
        {
          "internalType": "address",
          "name": "approver",
          "type": "address"
        }
      ],
      "name": "ERC721InvalidApprover",
      "type": "error"
    },
    {
      "inputs": [
        {
          "internalType": "address",
          "name": "operator",
          "type": "address"
        }
      ],
      "name": "ERC721InvalidOperator",
      "type": "error"
    },
    {
      "inputs": [
        {
          "internalType": "address",
          "name": "owner",
          "type": "address"
        }
      ],
      "name": "ERC721InvalidOwner",
      "type": "error"
    },
    {
      "inputs": [
        {
          "internalType": "address",
          "name": "receiver",
          "type": "address"
        }
      ],
      "name": "ERC721InvalidReceiver",
      "type": "error"
    },
    {
      "inputs": [
        {
          "internalType": "address",
          "name": "sender",
          "type": "address"
        }
      ],
      "name": "ERC721InvalidSender",
      "type": "error"
    },
    {
      "inputs": [
        {
          "internalType": "uint256",
          "name": "tokenId",
          "type": "uint256"
        }
      ],
      "name": "ERC721NonexistentToken",
      "type": "error"
    },
    {
      "anonymous": false,
      "inputs": [
        {
          "indexed": true,
          "internalType": "address",
          "name": "owner",
          "type": "address"
        },
        {
          "indexed": true,
          "internalType": "address",
          "name": "approved",
          "type": "address"
        },
        {
          "indexed": true,
          "internalType": "uint256",
          "name": "tokenId",
          "type": "uint256"
        }
      ],
      "name": "Approval",
      "type": "event"
    },
    {
      "anonymous": false,
      "inputs": [
        {
          "indexed": true,
          "internalType": "address",
          "name": "owner",
          "type": "address"
        },
        {
          "indexed": true,
          "internalType": "address",
          "name": "operator",
          "type": "address"
        },
        {
          "indexed": false,
          "internalType": "bool",
          "name": "approved",
          "type": "bool"
        }
      ],
      "name": "ApprovalForAll",
      "type": "event"
    },
    {
      "anonymous": false,
      "inputs": [
        {
          "indexed": false,
          "internalType": "uint256",
          "name": "carTokenId",
          "type": "uint256"
        },
        {
          "indexed": false,
          "internalType": "address",
          "name": "borrower",
          "type": "address"
        },
        {
          "indexed": false,
          "internalType": "uint256",
          "name": "startTime",
          "type": "uint256"
        },
        {
          "indexed": false,
          "internalType": "uint256",
          "name": "duration",
          "type": "uint256"
        }
      ],
      "name": "CarBorrowed",
      "type": "event"
    },
    {
      "anonymous": false,
      "inputs": [
        {
          "indexed": true,
          "internalType": "address",
          "name": "from",
          "type": "address"
        },
        {
          "indexed": true,
          "internalType": "address",
          "name": "to",
          "type": "address"
        },
        {
          "indexed": true,
          "internalType": "uint256",
          "name": "tokenId",
          "type": "uint256"
        }
      ],
      "name": "Transfer",
      "type": "event"
    },
    {
      "inputs": [
        {
          "internalType": "address",
          "name": "Car_to_Owner",
          "type": "address"
        }
      ],
      "name": "CarNFT",
      "outputs": [],
      "stateMutability": "nonpayable",
      "type": "function"
    },
    {
      "inputs": [],
      "name": "MaxCarCount",
      "outputs": [
        {
          "internalType": "uint256",
          "name": "",
          "type": "uint256"
        }
      ],
      "stateMutability": "view",
      "type": "function"
    },
    {
      "inputs": [
        {
          "internalType": "address",
          "name": "to",
          "type": "address"
        },
        {
          "internalType": "uint256",
          "name": "tokenId",
          "type": "uint256"
        }
      ],
      "name": "approve",
      "outputs": [],
      "stateMutability": "nonpayable",
      "type": "function"
    },
    {
      "inputs": [
        {
          "internalType": "uint256",
          "name": "CarTokenId",
          "type": "uint256"
        }
      ],
      "name": "back",
      "outputs": [],
      "stateMutability": "nonpayable",
      "type": "function"
    },
    {
      "inputs": [
        {
          "internalType": "address",
          "name": "owner",
          "type": "address"
        }
      ],
      "name": "balanceOf",
      "outputs": [
        {
          "internalType": "uint256",
          "name": "",
          "type": "uint256"
        }
      ],
      "stateMutability": "view",
      "type": "function"
    },
    {
      "inputs": [
        {
          "internalType": "uint256",
          "name": "CarTokenId",
          "type": "uint256"
        },
        {
          "internalType": "uint256",
          "name": "duration",
          "type": "uint256"
        }
      ],
      "name": "borrow",
      "outputs": [],
      "stateMutability": "nonpayable",
      "type": "function"
    },
    {
      "inputs": [],
      "name": "carCount",
      "outputs": [
        {
          "internalType": "uint256",
          "name": "",
          "type": "uint256"
        }
      ],
      "stateMutability": "view",
      "type": "function"
    },
    {
      "inputs": [
        {
          "internalType": "uint256",
          "name": "",
          "type": "uint256"
        }
      ],
      "name": "cars",
      "outputs": [
        {
          "internalType": "uint256",
          "name": "tokenId",
          "type": "uint256"
        },
        {
          "internalType": "address",
          "name": "owner",
          "type": "address"
        },
        {
          "internalType": "address",
          "name": "borrower",
          "type": "address"
        },
        {
          "internalType": "uint256",
          "name": "borrowUntil",
          "type": "uint256"
        }
      ],
      "stateMutability": "view",
      "type": "function"
    },
    {
      "inputs": [
        {
          "internalType": "uint256",
          "name": "tokenId",
          "type": "uint256"
        }
      ],
      "name": "getApproved",
      "outputs": [
        {
          "internalType": "address",
          "name": "",
          "type": "address"
        }
      ],
      "stateMutability": "view",
      "type": "function"
    },
    {
      "inputs": [],
      "name": "getBorrowedCars",
      "outputs": [
        {
          "components": [
            {
              "internalType": "uint256",
              "name": "tokenId",
              "type": "uint256"
            },
            {
              "internalType": "address",
              "name": "owner",
              "type": "address"
            },
            {
              "internalType": "address",
              "name": "borrower",
              "type": "address"
            },
            {
              "internalType": "uint256",
              "name": "borrowUntil",
              "type": "uint256"
            }
          ],
          "internalType": "struct BorrowYourCar.Car[]",
          "name": "",
          "type": "tuple[]"
        }
      ],
      "stateMutability": "view",
      "type": "function"
    },
    {
      "inputs": [
        {
          "internalType": "uint256",
          "name": "CarTokenId",
          "type": "uint256"
        }
      ],
      "name": "getCarBorrower",
      "outputs": [
        {
          "internalType": "address",
          "name": "",
          "type": "address"
        }
      ],
      "stateMutability": "view",
      "type": "function"
    },
    {
      "inputs": [
        {
          "internalType": "uint256",
          "name": "CarTokenId",
          "type": "uint256"
        }
      ],
      "name": "getCarOwner",
      "outputs": [
        {
          "internalType": "address",
          "name": "",
          "type": "address"
        }
      ],
      "stateMutability": "view",
      "type": "function"
    },
    {
      "inputs": [],
      "name": "getFreeCars",
      "outputs": [
        {
          "components": [
            {
              "internalType": "uint256",
              "name": "tokenId",
              "type": "uint256"
            },
            {
              "internalType": "address",
              "name": "owner",
              "type": "address"
            },
            {
              "internalType": "address",
              "name": "borrower",
              "type": "address"
            },
            {
              "internalType": "uint256",
              "name": "borrowUntil",
              "type": "uint256"
            }
          ],
          "internalType": "struct BorrowYourCar.Car[]",
          "name": "",
          "type": "tuple[]"
        }
      ],
      "stateMutability": "view",
      "type": "function"
    },
    {
      "inputs": [],
      "name": "getOwnedCars",
      "outputs": [
        {
          "components": [
            {
              "internalType": "uint256",
              "name": "tokenId",
              "type": "uint256"
            },
            {
              "internalType": "address",
              "name": "owner",
              "type": "address"
            },
            {
              "internalType": "address",
              "name": "borrower",
              "type": "address"
            },
            {
              "internalType": "uint256",
              "name": "borrowUntil",
              "type": "uint256"
            }
          ],
          "internalType": "struct BorrowYourCar.Car[]",
          "name": "",
          "type": "tuple[]"
        }
      ],
      "stateMutability": "view",
      "type": "function"
    },
    {
      "inputs": [],
      "name": "helloworld",
      "outputs": [
        {
          "internalType": "string",
          "name": "",
          "type": "string"
        }
      ],
      "stateMutability": "pure",
      "type": "function"
    },
    {
      "inputs": [
        {
          "internalType": "address",
          "name": "owner",
          "type": "address"
        },
        {
          "internalType": "address",
          "name": "operator",
          "type": "address"
        }
      ],
      "name": "isApprovedForAll",
      "outputs": [
        {
          "internalType": "bool",
          "name": "",
          "type": "bool"
        }
      ],
      "stateMutability": "view",
      "type": "function"
    },
    {
      "inputs": [
        {
          "internalType": "uint256",
          "name": "CarTokenId",
          "type": "uint256"
        }
      ],
      "name": "isFree",
      "outputs": [
        {
          "internalType": "bool",
          "name": "",
          "type": "bool"
        }
      ],
      "stateMutability": "nonpayable",
      "type": "function"
    },
    {
      "inputs": [],
      "name": "name",
      "outputs": [
        {
          "internalType": "string",
          "name": "",
          "type": "string"
        }
      ],
      "stateMutability": "view",
      "type": "function"
    },
    {
      "inputs": [
        {
          "internalType": "uint256",
          "name": "tokenId",
          "type": "uint256"
        }
      ],
      "name": "ownerOf",
      "outputs": [
        {
          "internalType": "address",
          "name": "",
          "type": "address"
        }
      ],
      "stateMutability": "view",
      "type": "function"
    },
    {
      "inputs": [
        {
          "internalType": "address",
          "name": "",
          "type": "address"
        },
        {
          "internalType": "uint256",
          "name": "",
          "type": "uint256"
        }
      ],
      "name": "owners",
      "outputs": [
        {
          "internalType": "uint256",
          "name": "",
          "type": "uint256"
        }
      ],
      "stateMutability": "view",
      "type": "function"
    },
    {
      "inputs": [
        {
          "internalType": "address",
          "name": "from",
          "type": "address"
        },
        {
          "internalType": "address",
          "name": "to",
          "type": "address"
        },
        {
          "internalType": "uint256",
          "name": "tokenId",
          "type": "uint256"
        }
      ],
      "name": "safeTransferFrom",
      "outputs": [],
      "stateMutability": "nonpayable",
      "type": "function"
    },
    {
      "inputs": [
        {
          "internalType": "address",
          "name": "from",
          "type": "address"
        },
        {
          "internalType": "address",
          "name": "to",
          "type": "address"
        },
        {
          "internalType": "uint256",
          "name": "tokenId",
          "type": "uint256"
        },
        {
          "internalType": "bytes",
          "name": "data",
          "type": "bytes"
        }
      ],
      "name": "safeTransferFrom",
      "outputs": [],
      "stateMutability": "nonpayable",
      "type": "function"
    },
    {
      "inputs": [
        {
          "internalType": "address",
          "name": "operator",
          "type": "address"
        },
        {
          "internalType": "bool",
          "name": "approved",
          "type": "bool"
        }
      ],
      "name": "setApprovalForAll",
      "outputs": [],
      "stateMutability": "nonpayable",
      "type": "function"
    },
    {
      "inputs": [
        {
          "internalType": "bytes4",
          "name": "interfaceId",
          "type": "bytes4"
        }
      ],
      "name": "supportsInterface",
      "outputs": [
        {
          "internalType": "bool",
          "name": "",
          "type": "bool"
        }
      ],
      "stateMutability": "view",
      "type": "function"
    },
    {
      "inputs": [],
      "name": "symbol",
      "outputs": [
        {
          "internalType": "string",
          "name": "",
          "type": "string"
        }
      ],
      "stateMutability": "view",
      "type": "function"
    },
    {
      "inputs": [
        {
          "internalType": "uint256",
          "name": "tokenId",
          "type": "uint256"
        }
      ],
      "name": "tokenURI",
      "outputs": [
        {
          "internalType": "string",
          "name": "",
          "type": "string"
        }
      ],
      "stateMutability": "view",
      "type": "function"
    },
    {
      "inputs": [
        {
          "internalType": "address",
          "name": "from",
          "type": "address"
        },
        {
          "internalType": "address",
          "name": "to",
          "type": "address"
        },
        {
          "internalType": "uint256",
          "name": "tokenId",
          "type": "uint256"
        }
      ],
      "name": "transferFrom",
      "outputs": [],
      "stateMutability": "nonpayable",
      "type": "function"
    }
  ],
  "bytecode": "0x608060405260006008556101f46009553480156200001c57600080fd5b5060405162003e1638038062003e16833981810160405281019062000042919062000205565b81818160009081620000559190620004d5565b508060019081620000679190620004d5565b5050505050620005bc565b6000604051905090565b600080fd5b600080fd5b600080fd5b600080fd5b6000601f19601f8301169050919050565b7f4e487b7100000000000000000000000000000000000000000000000000000000600052604160045260246000fd5b620000db8262000090565b810181811067ffffffffffffffff82111715620000fd57620000fc620000a1565b5b80604052505050565b60006200011262000072565b9050620001208282620000d0565b919050565b600067ffffffffffffffff821115620001435762000142620000a1565b5b6200014e8262000090565b9050602081019050919050565b60005b838110156200017b5780820151818401526020810190506200015e565b60008484015250505050565b60006200019e620001988462000125565b62000106565b905082815260208101848484011115620001bd57620001bc6200008b565b5b620001ca8482856200015b565b509392505050565b600082601f830112620001ea57620001e962000086565b5b8151620001fc84826020860162000187565b91505092915050565b600080604083850312156200021f576200021e6200007c565b5b600083015167ffffffffffffffff81111562000240576200023f62000081565b5b6200024e85828601620001d2565b925050602083015167ffffffffffffffff81111562000272576200027162000081565b5b6200028085828601620001d2565b9150509250929050565b600081519050919050565b7f4e487b7100000000000000000000000000000000000000000000000000000000600052602260045260246000fd5b60006002820490506001821680620002dd57607f821691505b602082108103620002f357620002f262000295565b5b50919050565b60008190508160005260206000209050919050565b60006020601f8301049050919050565b600082821b905092915050565b6000600883026200035d7fffffffffffffffffffffffffffffffffffffffffffffffffffffffffffffffff826200031e565b6200036986836200031e565b95508019841693508086168417925050509392505050565b6000819050919050565b6000819050919050565b6000620003b6620003b0620003aa8462000381565b6200038b565b62000381565b9050919050565b6000819050919050565b620003d28362000395565b620003ea620003e182620003bd565b8484546200032b565b825550505050565b600090565b62000401620003f2565b6200040e818484620003c7565b505050565b5b8181101562000436576200042a600082620003f7565b60018101905062000414565b5050565b601f82111562000485576200044f81620002f9565b6200045a846200030e565b810160208510156200046a578190505b6200048262000479856200030e565b83018262000413565b50505b505050565b600082821c905092915050565b6000620004aa600019846008026200048a565b1980831691505092915050565b6000620004c5838362000497565b9150826002028217905092915050565b620004e0826200028a565b67ffffffffffffffff811115620004fc57620004fb620000a1565b5b620005088254620002c4565b620005158282856200043a565b600060209050601f8311600181146200054d576000841562000538578287015190505b620005448582620004b7565b865550620005b4565b601f1984166200055d86620002f9565b60005b82811015620005875784890151825560018201915060208501945060208101905062000560565b86831015620005a75784890151620005a3601f89168262000497565b8355505b6001600288020188555050505b505050505050565b61384a80620005cc6000396000f3fe608060405234801561001057600080fd5b50600436106101a95760003560e01c806370a08231116100f9578063c3c7059111610097578063ce4400da11610071578063ce4400da146104e0578063e985e9c514610510578063f13a571f14610540578063f7746e361461055e576101a9565b8063c3c7059114610462578063c6d9cb1814610492578063c87b56dd146104b0576101a9565b80639b3e2787116100d35780639b3e2787146103dc578063a22cb4651461040c578063a5adf8ea14610428578063b88d4fde14610446576101a9565b806370a0823114610370578063842992fd146103a057806395d89b41146103be576101a9565b806323b872dd1161016657806342842e0e1161014057806342842e0e146102ec5780634a562885146103085780636305ad7d146103245780636352211e14610340576101a9565b806323b872dd14610294578063297a1f56146102b05780632f2f4859146102ce576101a9565b806301ffc9a7146101ae57806306fdde03146101de578063081812fc146101fc578063095ea7b31461022c5780630ecbcdab146102485780631db8bd4414610264575b600080fd5b6101c860048036038101906101c39190612acf565b610591565b6040516101d59190612b17565b60405180910390f35b6101e6610673565b6040516101f39190612bc2565b60405180910390f35b61021660048036038101906102119190612c1a565b610705565b6040516102239190612c88565b60405180910390f35b61024660048036038101906102419190612ccf565b610721565b005b610262600480360381019061025d9190612d0f565b610737565b005b61027e60048036038101906102799190612c1a565b6108e7565b60405161028b9190612c88565b60405180910390f35b6102ae60048036038101906102a99190612d4f565b610a42565b005b6102b8610b44565b6040516102c59190612db1565b60405180910390f35b6102d6610b4a565b6040516102e39190612bc2565b60405180910390f35b61030660048036038101906103019190612d4f565b610b87565b005b610322600480360381019061031d9190612c1a565b610ba7565b005b61033e60048036038101906103399190612dcc565b610d78565b005b61035a60048036038101906103559190612c1a565b610f0d565b6040516103679190612c88565b60405180910390f35b61038a60048036038101906103859190612dcc565b610f1f565b6040516103979190612db1565b60405180910390f35b6103a8610fd9565b6040516103b59190612f1b565b60405180910390f35b6103c661126e565b6040516103d39190612bc2565b60405180910390f35b6103f660048036038101906103f19190612ccf565b611300565b6040516104039190612db1565b60405180910390f35b61042660048036038101906104219190612f69565b611331565b005b610430611347565b60405161043d9190612f1b565b60405180910390f35b610460600480360381019061045b91906130de565b61159f565b005b61047c60048036038101906104779190612c1a565b6115bc565b6040516104899190612c88565b60405180910390f35b61049a611672565b6040516104a79190612f1b565b60405180910390f35b6104ca60048036038101906104c59190612c1a565b611907565b6040516104d79190612bc2565b60405180910390f35b6104fa60048036038101906104f59190612c1a565b611970565b6040516105079190612b17565b60405180910390f35b61052a60048036038101906105259190613161565b611adb565b6040516105379190612b17565b60405180910390f35b610548611b6f565b6040516105559190612db1565b60405180910390f35b61057860048036038101906105739190612c1a565b611b75565b60405161058894939291906131a1565b60405180910390f35b60007f80ac58cd000000000000000000000000000000000000000000000000000000007bffffffffffffffffffffffffffffffffffffffffffffffffffffffff1916827bffffffffffffffffffffffffffffffffffffffffffffffffffffffff1916148061065c57507f5b5e139f000000000000000000000000000000000000000000000000000000007bffffffffffffffffffffffffffffffffffffffffffffffffffffffff1916827bffffffffffffffffffffffffffffffffffffffffffffffffffffffff1916145b8061066c575061066b82611be5565b5b9050919050565b60606000805461068290613215565b80601f01602080910402602001604051908101604052809291908181526020018280546106ae90613215565b80156106fb5780601f106106d0576101008083540402835291602001916106fb565b820191906000526020600020905b8154815290600101906020018083116106de57829003601f168201915b5050505050905090565b600061071082611c4f565b5061071a82611cd7565b9050919050565b610733828261072e611d14565b611d1c565b5050565b600854821061077b576040517f08c379a000000000000000000000000000000000000000000000000000000000815260040161077290613292565b60405180910390fd5b60006006600084815260200190815260200160002090503373ffffffffffffffffffffffffffffffffffffffff168160010160009054906101000a900473ffffffffffffffffffffffffffffffffffffffff1673ffffffffffffffffffffffffffffffffffffffff1603610824576040517f08c379a000000000000000000000000000000000000000000000000000000000815260040161081b906132fe565b60405180910390fd5b338160020160006101000a81548173ffffffffffffffffffffffffffffffffffffffff021916908373ffffffffffffffffffffffffffffffffffffffff16021790555060004290508281610878919061334d565b82600301819055507f8879d78706834dc00d82232992f71250fab6a1f70b08260968253950083d88cd848360020160009054906101000a900473ffffffffffffffffffffffffffffffffffffffff1683866040516108d99493929190613381565b60405180910390a150505050565b600080600854831061092e576040517f08c379a000000000000000000000000000000000000000000000000000000000815260040161092590613292565b60405180910390fd5b60005b600854811015610a3857808403610a2557600073ffffffffffffffffffffffffffffffffffffffff166006600083815260200190815260200160002060020160009054906101000a900473ffffffffffffffffffffffffffffffffffffffff1673ffffffffffffffffffffffffffffffffffffffff16036109e7576040517f08c379a00000000000000000000000000000000000000000000000000000000081526004016109de90613412565b60405180910390fd5b6006600082815260200190815260200160002060020160009054906101000a900473ffffffffffffffffffffffffffffffffffffffff169150610a38565b8080610a3090613432565b915050610931565b5080915050919050565b600073ffffffffffffffffffffffffffffffffffffffff168273ffffffffffffffffffffffffffffffffffffffff1603610ab45760006040517f64a0ae92000000000000000000000000000000000000000000000000000000008152600401610aab9190612c88565b60405180910390fd5b6000610ac88383610ac3611d14565b611d2e565b90508373ffffffffffffffffffffffffffffffffffffffff168173ffffffffffffffffffffffffffffffffffffffff1614610b3e578382826040517f64283d7b000000000000000000000000000000000000000000000000000000008152600401610b359392919061347a565b60405180910390fd5b50505050565b60085481565b60606040518060400160405280600b81526020017f68656c6c6f20776f726c64000000000000000000000000000000000000000000815250905090565b610ba28383836040518060200160405280600081525061159f565b505050565b6008548110610beb576040517f08c379a0000000000000000000000000000000000000000000000000000000008152600401610be290613292565b60405180910390fd5b60006006600083815260200190815260200160002090503373ffffffffffffffffffffffffffffffffffffffff168160010160009054906101000a900473ffffffffffffffffffffffffffffffffffffffff1673ffffffffffffffffffffffffffffffffffffffff1603610c94576040517f08c379a0000000000000000000000000000000000000000000000000000000008152600401610c8b906134fd565b60405180910390fd5b3373ffffffffffffffffffffffffffffffffffffffff168160020160009054906101000a900473ffffffffffffffffffffffffffffffffffffffff1673ffffffffffffffffffffffffffffffffffffffff1614610d26576040517f08c379a0000000000000000000000000000000000000000000000000000000008152600401610d1d9061358f565b60405180910390fd5b60008160020160006101000a81548173ffffffffffffffffffffffffffffffffffffffff021916908373ffffffffffffffffffffffffffffffffffffffff160217905550600081600301819055505050565b6009546001600854610d8a919061334d565b10610dca576040517f08c379a0000000000000000000000000000000000000000000000000000000008152600401610dc1906135fb565b60405180910390fd5b610dd681600854611f48565b8060066000600854815260200190815260200160002060010160006101000a81548173ffffffffffffffffffffffffffffffffffffffff021916908373ffffffffffffffffffffffffffffffffffffffff16021790555060085460066000600854815260200190815260200160002060000181905550600760008273ffffffffffffffffffffffffffffffffffffffff1673ffffffffffffffffffffffffffffffffffffffff168152602001908152602001600020600854908060018154018082558091505060019003906000526020600020016000909190919091505560086000815480929190610ec790613432565b9190505550610f0a6040518060400160405280601281526020017f6765742061206361722073756363657373210000000000000000000000000000815250612041565b50565b6000610f1882611c4f565b9050919050565b60008073ffffffffffffffffffffffffffffffffffffffff168273ffffffffffffffffffffffffffffffffffffffff1603610f925760006040517f89c62b64000000000000000000000000000000000000000000000000000000008152600401610f899190612c88565b60405180910390fd5b600360008373ffffffffffffffffffffffffffffffffffffffff1673ffffffffffffffffffffffffffffffffffffffff168152602001908152602001600020549050919050565b60606000805b600854811015611074573373ffffffffffffffffffffffffffffffffffffffff166006600083815260200190815260200160002060010160009054906101000a900473ffffffffffffffffffffffffffffffffffffffff1673ffffffffffffffffffffffffffffffffffffffff161461106157818061105d90613432565b9250505b808061106c90613432565b915050610fdf565b5060008167ffffffffffffffff81111561109157611090612fb3565b5b6040519080825280602002602001820160405280156110ca57816020015b6110b7612a05565b8152602001906001900390816110af5790505b5090506000915060005b600854811015611265573373ffffffffffffffffffffffffffffffffffffffff166006600083815260200190815260200160002060010160009054906101000a900473ffffffffffffffffffffffffffffffffffffffff1673ffffffffffffffffffffffffffffffffffffffff16146112525760066000828152602001908152602001600020604051806080016040529081600082015481526020016001820160009054906101000a900473ffffffffffffffffffffffffffffffffffffffff1673ffffffffffffffffffffffffffffffffffffffff1673ffffffffffffffffffffffffffffffffffffffff1681526020016002820160009054906101000a900473ffffffffffffffffffffffffffffffffffffffff1673ffffffffffffffffffffffffffffffffffffffff1673ffffffffffffffffffffffffffffffffffffffff1681526020016003820154815250508284815181106112385761123761361b565b5b6020026020010181905250828061124e90613432565b9350505b808061125d90613432565b9150506110d4565b50809250505090565b60606001805461127d90613215565b80601f01602080910402602001604051908101604052809291908181526020018280546112a990613215565b80156112f65780601f106112cb576101008083540402835291602001916112f6565b820191906000526020600020905b8154815290600101906020018083116112d957829003601f168201915b5050505050905090565b6007602052816000526040600020818154811061131c57600080fd5b90600052602060002001600091509150505481565b61134361133c611d14565b83836120da565b5050565b60606000600760003373ffffffffffffffffffffffffffffffffffffffff1673ffffffffffffffffffffffffffffffffffffffff1681526020019081526020016000208054905067ffffffffffffffff8111156113a7576113a6612fb3565b5b6040519080825280602002602001820160405280156113e057816020015b6113cd612a05565b8152602001906001900390816113c55790505b50905060005b81518110156115595760066000600760003373ffffffffffffffffffffffffffffffffffffffff1673ffffffffffffffffffffffffffffffffffffffff16815260200190815260200160002083815481106114445761144361361b565b5b90600052602060002001548152602001908152602001600020604051806080016040529081600082015481526020016001820160009054906101000a900473ffffffffffffffffffffffffffffffffffffffff1673ffffffffffffffffffffffffffffffffffffffff1673ffffffffffffffffffffffffffffffffffffffff1681526020016002820160009054906101000a900473ffffffffffffffffffffffffffffffffffffffff1673ffffffffffffffffffffffffffffffffffffffff1673ffffffffffffffffffffffffffffffffffffffff16815260200160038201548152505082828151811061153b5761153a61361b565b5b6020026020010181905250808061155190613432565b9150506113e6565b506115986040518060400160405280601781526020017f676574206f776e65642063617273207375636365737321000000000000000000815250612041565b8091505090565b6115aa848484610a42565b6115b684848484612249565b50505050565b6000806008548310611603576040517f08c379a00000000000000000000000000000000000000000000000000000000081526004016115fa90613292565b60405180910390fd5b60005b60085481101561166857808403611655576006600082815260200190815260200160002060010160009054906101000a900473ffffffffffffffffffffffffffffffffffffffff169150611668565b808061166090613432565b915050611606565b5080915050919050565b60606000805b60085481101561170d573373ffffffffffffffffffffffffffffffffffffffff166006600083815260200190815260200160002060020160009054906101000a900473ffffffffffffffffffffffffffffffffffffffff1673ffffffffffffffffffffffffffffffffffffffff16036116fa5781806116f690613432565b9250505b808061170590613432565b915050611678565b5060008167ffffffffffffffff81111561172a57611729612fb3565b5b60405190808252806020026020018201604052801561176357816020015b611750612a05565b8152602001906001900390816117485790505b5090506000915060005b6008548110156118fe573373ffffffffffffffffffffffffffffffffffffffff166006600083815260200190815260200160002060020160009054906101000a900473ffffffffffffffffffffffffffffffffffffffff1673ffffffffffffffffffffffffffffffffffffffff16036118eb5760066000828152602001908152602001600020604051806080016040529081600082015481526020016001820160009054906101000a900473ffffffffffffffffffffffffffffffffffffffff1673ffffffffffffffffffffffffffffffffffffffff1673ffffffffffffffffffffffffffffffffffffffff1681526020016002820160009054906101000a900473ffffffffffffffffffffffffffffffffffffffff1673ffffffffffffffffffffffffffffffffffffffff1673ffffffffffffffffffffffffffffffffffffffff1681526020016003820154815250508284815181106118d1576118d061361b565b5b602002602001018190525082806118e790613432565b9350505b80806118f690613432565b91505061176d565b50809250505090565b606061191282611c4f565b50600061191d612400565b9050600081511161193d5760405180602001604052806000815250611968565b8061194784612417565b604051602001611958929190613686565b6040516020818303038152906040525b915050919050565b600060085482106119b6576040517f08c379a00000000000000000000000000000000000000000000000000000000081526004016119ad90613292565b60405180910390fd5b60008073ffffffffffffffffffffffffffffffffffffffff166006600085815260200190815260200160002060020160009054906101000a900473ffffffffffffffffffffffffffffffffffffffff1673ffffffffffffffffffffffffffffffffffffffff1603611a2e576001905080915050611ad6565b600042905060066000858152602001908152602001600020600301548110611ad0576001915060006006600086815260200190815260200160002060020160006101000a81548173ffffffffffffffffffffffffffffffffffffffff021916908373ffffffffffffffffffffffffffffffffffffffff160217905550600060066000868152602001908152602001600020600301819055508192505050611ad6565b81925050505b919050565b6000600560008473ffffffffffffffffffffffffffffffffffffffff1673ffffffffffffffffffffffffffffffffffffffff16815260200190815260200160002060008373ffffffffffffffffffffffffffffffffffffffff1673ffffffffffffffffffffffffffffffffffffffff16815260200190815260200160002060009054906101000a900460ff16905092915050565b60095481565b60066020528060005260406000206000915090508060000154908060010160009054906101000a900473ffffffffffffffffffffffffffffffffffffffff16908060020160009054906101000a900473ffffffffffffffffffffffffffffffffffffffff16908060030154905084565b60007f01ffc9a7000000000000000000000000000000000000000000000000000000007bffffffffffffffffffffffffffffffffffffffffffffffffffffffff1916827bffffffffffffffffffffffffffffffffffffffffffffffffffffffff1916149050919050565b600080611c5b836124e5565b9050600073ffffffffffffffffffffffffffffffffffffffff168173ffffffffffffffffffffffffffffffffffffffff1603611cce57826040517f7e273289000000000000000000000000000000000000000000000000000000008152600401611cc59190612db1565b60405180910390fd5b80915050919050565b60006004600083815260200190815260200160002060009054906101000a900473ffffffffffffffffffffffffffffffffffffffff169050919050565b600033905090565b611d298383836001612522565b505050565b600080611d3a846124e5565b9050600073ffffffffffffffffffffffffffffffffffffffff168373ffffffffffffffffffffffffffffffffffffffff1614611d7c57611d7b8184866126e7565b5b600073ffffffffffffffffffffffffffffffffffffffff168173ffffffffffffffffffffffffffffffffffffffff1614611e0d57611dbe600085600080612522565b6001600360008373ffffffffffffffffffffffffffffffffffffffff1673ffffffffffffffffffffffffffffffffffffffff168152602001908152602001600020600082825403925050819055505b600073ffffffffffffffffffffffffffffffffffffffff168573ffffffffffffffffffffffffffffffffffffffff1614611e90576001600360008773ffffffffffffffffffffffffffffffffffffffff1673ffffffffffffffffffffffffffffffffffffffff168152602001908152602001600020600082825401925050819055505b846002600086815260200190815260200160002060006101000a81548173ffffffffffffffffffffffffffffffffffffffff021916908373ffffffffffffffffffffffffffffffffffffffff160217905550838573ffffffffffffffffffffffffffffffffffffffff168273ffffffffffffffffffffffffffffffffffffffff167fddf252ad1be2c89b69c2b068fc378daa952ba7f163c4a11628f55a4df523b3ef60405160405180910390a4809150509392505050565b600073ffffffffffffffffffffffffffffffffffffffff168273ffffffffffffffffffffffffffffffffffffffff1603611fba5760006040517f64a0ae92000000000000000000000000000000000000000000000000000000008152600401611fb19190612c88565b60405180910390fd5b6000611fc883836000611d2e565b9050600073ffffffffffffffffffffffffffffffffffffffff168173ffffffffffffffffffffffffffffffffffffffff161461203c5760006040517f73c6ac6e0000000000000000000000000000000000000000000000000000000081526004016120339190612c88565b60405180910390fd5b505050565b6120d7816040516024016120559190612bc2565b6040516020818303038152906040527f41304fac000000000000000000000000000000000000000000000000000000007bffffffffffffffffffffffffffffffffffffffffffffffffffffffff19166020820180517bffffffffffffffffffffffffffffffffffffffffffffffffffffffff83818316178352505050506127ab565b50565b600073ffffffffffffffffffffffffffffffffffffffff168273ffffffffffffffffffffffffffffffffffffffff160361214b57816040517f5b08ba180000000000000000000000000000000000000000000000000000000081526004016121429190612c88565b60405180910390fd5b80600560008573ffffffffffffffffffffffffffffffffffffffff1673ffffffffffffffffffffffffffffffffffffffff16815260200190815260200160002060008473ffffffffffffffffffffffffffffffffffffffff1673ffffffffffffffffffffffffffffffffffffffff16815260200190815260200160002060006101000a81548160ff0219169083151502179055508173ffffffffffffffffffffffffffffffffffffffff168373ffffffffffffffffffffffffffffffffffffffff167f17307eab39ab6107e8899845ad3d59bd9653f200f220920489ca2b5937696c318360405161223c9190612b17565b60405180910390a3505050565b60008373ffffffffffffffffffffffffffffffffffffffff163b11156123fa578273ffffffffffffffffffffffffffffffffffffffff1663150b7a0261228d611d14565b8685856040518563ffffffff1660e01b81526004016122af94939291906136ff565b6020604051808303816000875af19250505080156122eb57506040513d601f19601f820116820180604052508101906122e89190613760565b60015b61236f573d806000811461231b576040519150601f19603f3d011682016040523d82523d6000602084013e612320565b606091505b50600081510361236757836040517f64a0ae9200000000000000000000000000000000000000000000000000000000815260040161235e9190612c88565b60405180910390fd5b805181602001fd5b63150b7a0260e01b7bffffffffffffffffffffffffffffffffffffffffffffffffffffffff1916817bffffffffffffffffffffffffffffffffffffffffffffffffffffffff1916146123f857836040517f64a0ae920000000000000000000000000000000000000000000000000000000081526004016123ef9190612c88565b60405180910390fd5b505b50505050565b606060405180602001604052806000815250905090565b606060006001612426846127c5565b01905060008167ffffffffffffffff81111561244557612444612fb3565b5b6040519080825280601f01601f1916602001820160405280156124775781602001600182028036833780820191505090505b509050600082602001820190505b6001156124da578080600190039150507f3031323334353637383961626364656600000000000000000000000000000000600a86061a8153600a85816124ce576124cd61378d565b5b04945060008503612485575b819350505050919050565b60006002600083815260200190815260200160002060009054906101000a900473ffffffffffffffffffffffffffffffffffffffff169050919050565b808061255b5750600073ffffffffffffffffffffffffffffffffffffffff168273ffffffffffffffffffffffffffffffffffffffff1614155b1561268f57600061256b84611c4f565b9050600073ffffffffffffffffffffffffffffffffffffffff168373ffffffffffffffffffffffffffffffffffffffff16141580156125d657508273ffffffffffffffffffffffffffffffffffffffff168173ffffffffffffffffffffffffffffffffffffffff1614155b80156125e957506125e78184611adb565b155b1561262b57826040517fa9fbf51f0000000000000000000000000000000000000000000000000000000081526004016126229190612c88565b60405180910390fd5b811561268d57838573ffffffffffffffffffffffffffffffffffffffff168273ffffffffffffffffffffffffffffffffffffffff167f8c5be1e5ebec7d5bd14f71427d1e84f3dd0314c0f7b2291e5b200ac8c7c3b92560405160405180910390a45b505b836004600085815260200190815260200160002060006101000a81548173ffffffffffffffffffffffffffffffffffffffff021916908373ffffffffffffffffffffffffffffffffffffffff16021790555050505050565b6126f2838383612918565b6127a657600073ffffffffffffffffffffffffffffffffffffffff168373ffffffffffffffffffffffffffffffffffffffff160361276757806040517f7e27328900000000000000000000000000000000000000000000000000000000815260040161275e9190612db1565b60405180910390fd5b81816040517f177e802f00000000000000000000000000000000000000000000000000000000815260040161279d9291906137bc565b60405180910390fd5b505050565b6127c2816127ba6129d96129fa565b63ffffffff16565b50565b600080600090507a184f03e93ff9f4daa797ed6e38ed64bf6a1f0100000000000000008310612823577a184f03e93ff9f4daa797ed6e38ed64bf6a1f01000000000000000083816128195761281861378d565b5b0492506040810190505b6d04ee2d6d415b85acef81000000008310612860576d04ee2d6d415b85acef810000000083816128565761285561378d565b5b0492506020810190505b662386f26fc10000831061288f57662386f26fc1000083816128855761288461378d565b5b0492506010810190505b6305f5e10083106128b8576305f5e10083816128ae576128ad61378d565b5b0492506008810190505b61271083106128dd5761271083816128d3576128d261378d565b5b0492506004810190505b6064831061290057606483816128f6576128f561378d565b5b0492506002810190505b600a831061290f576001810190505b80915050919050565b60008073ffffffffffffffffffffffffffffffffffffffff168373ffffffffffffffffffffffffffffffffffffffff16141580156129d057508273ffffffffffffffffffffffffffffffffffffffff168473ffffffffffffffffffffffffffffffffffffffff16148061299157506129908484611adb565b5b806129cf57508273ffffffffffffffffffffffffffffffffffffffff166129b783611cd7565b73ffffffffffffffffffffffffffffffffffffffff16145b5b90509392505050565b60006a636f6e736f6c652e6c6f679050600080835160208501845afa505050565b612a59819050919050565b604051806080016040528060008152602001600073ffffffffffffffffffffffffffffffffffffffff168152602001600073ffffffffffffffffffffffffffffffffffffffff168152602001600081525090565b612a616137e5565b565b6000604051905090565b600080fd5b600080fd5b60007fffffffff0000000000000000000000000000000000000000000000000000000082169050919050565b612aac81612a77565b8114612ab757600080fd5b50565b600081359050612ac981612aa3565b92915050565b600060208284031215612ae557612ae4612a6d565b5b6000612af384828501612aba565b91505092915050565b60008115159050919050565b612b1181612afc565b82525050565b6000602082019050612b2c6000830184612b08565b92915050565b600081519050919050565b600082825260208201905092915050565b60005b83811015612b6c578082015181840152602081019050612b51565b60008484015250505050565b6000601f19601f8301169050919050565b6000612b9482612b32565b612b9e8185612b3d565b9350612bae818560208601612b4e565b612bb781612b78565b840191505092915050565b60006020820190508181036000830152612bdc8184612b89565b905092915050565b6000819050919050565b612bf781612be4565b8114612c0257600080fd5b50565b600081359050612c1481612bee565b92915050565b600060208284031215612c3057612c2f612a6d565b5b6000612c3e84828501612c05565b91505092915050565b600073ffffffffffffffffffffffffffffffffffffffff82169050919050565b6000612c7282612c47565b9050919050565b612c8281612c67565b82525050565b6000602082019050612c9d6000830184612c79565b92915050565b612cac81612c67565b8114612cb757600080fd5b50565b600081359050612cc981612ca3565b92915050565b60008060408385031215612ce657612ce5612a6d565b5b6000612cf485828601612cba565b9250506020612d0585828601612c05565b9150509250929050565b60008060408385031215612d2657612d25612a6d565b5b6000612d3485828601612c05565b9250506020612d4585828601612c05565b9150509250929050565b600080600060608486031215612d6857612d67612a6d565b5b6000612d7686828701612cba565b9350506020612d8786828701612cba565b9250506040612d9886828701612c05565b9150509250925092565b612dab81612be4565b82525050565b6000602082019050612dc66000830184612da2565b92915050565b600060208284031215612de257612de1612a6d565b5b6000612df084828501612cba565b91505092915050565b600081519050919050565b600082825260208201905092915050565b6000819050602082019050919050565b612e2e81612be4565b82525050565b612e3d81612c67565b82525050565b608082016000820151612e596000850182612e25565b506020820151612e6c6020850182612e34565b506040820151612e7f6040850182612e34565b506060820151612e926060850182612e25565b50505050565b6000612ea48383612e43565b60808301905092915050565b6000602082019050919050565b6000612ec882612df9565b612ed28185612e04565b9350612edd83612e15565b8060005b83811015612f0e578151612ef58882612e98565b9750612f0083612eb0565b925050600181019050612ee1565b5085935050505092915050565b60006020820190508181036000830152612f358184612ebd565b905092915050565b612f4681612afc565b8114612f5157600080fd5b50565b600081359050612f6381612f3d565b92915050565b60008060408385031215612f8057612f7f612a6d565b5b6000612f8e85828601612cba565b9250506020612f9f85828601612f54565b9150509250929050565b600080fd5b600080fd5b7f4e487b7100000000000000000000000000000000000000000000000000000000600052604160045260246000fd5b612feb82612b78565b810181811067ffffffffffffffff8211171561300a57613009612fb3565b5b80604052505050565b600061301d612a63565b90506130298282612fe2565b919050565b600067ffffffffffffffff82111561304957613048612fb3565b5b61305282612b78565b9050602081019050919050565b82818337600083830152505050565b600061308161307c8461302e565b613013565b90508281526020810184848401111561309d5761309c612fae565b5b6130a884828561305f565b509392505050565b600082601f8301126130c5576130c4612fa9565b5b81356130d584826020860161306e565b91505092915050565b600080600080608085870312156130f8576130f7612a6d565b5b600061310687828801612cba565b945050602061311787828801612cba565b935050604061312887828801612c05565b925050606085013567ffffffffffffffff81111561314957613148612a72565b5b613155878288016130b0565b91505092959194509250565b6000806040838503121561317857613177612a6d565b5b600061318685828601612cba565b925050602061319785828601612cba565b9150509250929050565b60006080820190506131b66000830187612da2565b6131c36020830186612c79565b6131d06040830185612c79565b6131dd6060830184612da2565b95945050505050565b7f4e487b7100000000000000000000000000000000000000000000000000000000600052602260045260246000fd5b6000600282049050600182168061322d57607f821691505b6020821081036132405761323f6131e6565b5b50919050565b7f696e76616c696420636172206964000000000000000000000000000000000000600082015250565b600061327c600e83612b3d565b915061328782613246565b602082019050919050565b600060208201905081810360008301526132ab8161326f565b9050919050565b7f63616e6e6f7420626f72726f7720796f75727320636172000000000000000000600082015250565b60006132e8601783612b3d565b91506132f3826132b2565b602082019050919050565b60006020820190508181036000830152613317816132db565b9050919050565b7f4e487b7100000000000000000000000000000000000000000000000000000000600052601160045260246000fd5b600061335882612be4565b915061336383612be4565b925082820190508082111561337b5761337a61331e565b5b92915050565b60006080820190506133966000830187612da2565b6133a36020830186612c79565b6133b06040830185612da2565b6133bd6060830184612da2565b95945050505050565b7f636172206e6f7420626f72726f77656400000000000000000000000000000000600082015250565b60006133fc601083612b3d565b9150613407826133c6565b602082019050919050565b6000602082019050818103600083015261342b816133ef565b9050919050565b600061343d82612be4565b91507fffffffffffffffffffffffffffffffffffffffffffffffffffffffffffffffff820361346f5761346e61331e565b5b600182019050919050565b600060608201905061348f6000830186612c79565b61349c6020830185612da2565b6134a96040830184612c79565b949350505050565b7f63616e6e6f742072657475726e20796f75727320636172000000000000000000600082015250565b60006134e7601783612b3d565b91506134f2826134b1565b602082019050919050565b60006020820190508181036000830152613516816134da565b9050919050565b7f796f75206e6f7420626f72726f77207468697320636172206f7220616c72656160008201527f64792072657475726e0000000000000000000000000000000000000000000000602082015250565b6000613579602983612b3d565b91506135848261351d565b604082019050919050565b600060208201905081810360008301526135a88161356c565b9050919050565b7f4f766572204d61782043617220636f756e747321000000000000000000000000600082015250565b60006135e5601483612b3d565b91506135f0826135af565b602082019050919050565b60006020820190508181036000830152613614816135d8565b9050919050565b7f4e487b7100000000000000000000000000000000000000000000000000000000600052603260045260246000fd5b600081905092915050565b600061366082612b32565b61366a818561364a565b935061367a818560208601612b4e565b80840191505092915050565b60006136928285613655565b915061369e8284613655565b91508190509392505050565b600081519050919050565b600082825260208201905092915050565b60006136d1826136aa565b6136db81856136b5565b93506136eb818560208601612b4e565b6136f481612b78565b840191505092915050565b60006080820190506137146000830187612c79565b6137216020830186612c79565b61372e6040830185612da2565b818103606083015261374081846136c6565b905095945050505050565b60008151905061375a81612aa3565b92915050565b60006020828403121561377657613775612a6d565b5b60006137848482850161374b565b91505092915050565b7f4e487b7100000000000000000000000000000000000000000000000000000000600052601260045260246000fd5b60006040820190506137d16000830185612c79565b6137de6020830184612da2565b9392505050565b7f4e487b7100000000000000000000000000000000000000000000000000000000600052605160045260246000fdfea26469706673582212201f8c2a61d76499e532be3be11c07c29f258b0bb96456296b038d4905ebecef8d64736f6c63430008140033",
  "linkReferences": {},
  "deployedLinkReferences": {}
}